:1000000030450020C96500006B9E0100816500003D
:100010008165000081650000816500008165000048
:100020000000000000000000000000003157000048
:100030008165000000000000D556000081650000C9
:10004000C1570000C1570000C1570000C157000050
:10005000C1570000C1570000C1570000C157000040
:10006000C1570000C1570000C1570000C157000030
:10007000C1570000C1570000C1570000C157000020
:10008000C1570000C1570000C1570000C157000010
:10009000C1570000C1570000C1570000C157000000
:1000A000C1570000C1570000C1570000C1570000F0
:1000B000C1570000C1570000C1570000C1570000E0
:1000C000C1570000C1570000C1570000C1570000D0
:1000D000C1570000C1570000C1570000C1570000C0
:1000E000C1570000C1570000C1570000C1570000B0
:1000F000C1570000C1570000C1570000C1570000A0
:10010000C1570000C1570000C1570000C15700008F
:10011000C1570000C1570000C1570000C15700007F
:10012000C1570000C1570000C1570000C15700006F
:10013000C1570000C1570000C1570000C15700005F
:10014000C1570000C1570000C1570000C15700004F
:04015000C157000093
:04015400FFFFFFFFAB
:1001580080F0004002E000BF81F0004142001FBF74
:100168005FEA410392EA030F7FEA226C7FEA236C7D
:100178006AD04FEA1262D2EB1363C1BFD218414072
:1001880048404140B8BF5B42192B88BF704710F008
:10019800004F40F4000020F07F4018BF404211F0AB
:1001A800004F41F4000121F07F4118BF494292EA13
:1001B800030F3FD0A2F1010241FA03FC10EB0C003F
:1001C800C3F1200301FA03F100F0004302D54942CC
:1001D80060EB4000B0F5000F13D3B0F1807F06D379
:1001E80040084FEA310102F10102FE2A51D2B1F171
:1001F800004F40EBC25008BF20F0010040EA030066
:100208007047490040EB0000013A28BFB0F5000FE5
:10021800EDD2B0FA80FCACF1080CB2EB0C0200FA9B
:100228000CF0AABF00EBC25052421843BCBFD040EA
:100238001843704792F0000F81F4000106BF80F464
:1002480000000132013BB5E74FEA41037FEA226C27
:1002580018BF7FEA236C21D092EA030F04D092F0F2
:10026800000F08BF0846704790EA010F1CBF002026
:10027800704712F07F4F04D1400028BF40F0004083
:10028800704712F100723CBF00F50000704700F0A3
:10029800004343F0FE4040F4000070477FEA2262CA
:1002A80016BF08467FEA23630146420206BF5FEA9B
:1002B800412390EA010F40F4800070474FF000039B
:1002C80004E000BF10F0004348BF40425FEA000C62
:1002D80008BF704743F0964301464FF000001CE00A
:1002E80050EA010208BF70474FF000030AE000BF60
:1002F80050EA010208BF704711F0004302D540429E
:1003080061EB41015FEA010C02BF8446014600200F
:1003180043F0B64308BFA3F18053A3F50003BCFA2A
:100328008CF2083AA3EBC25310DB01FA02FC6344D7
:1003380000FA02FCC2F12002BCF1004F20FA02F2DE
:1003480043EB020008BF20F00100704702F12002D1
:1003580001FA02FCC2F1200250EA4C0021FA02F232
:1003680043EB020008BF20EADC7070474FF0FF0C37
:100378001CEAD0521EBF1CEAD15392EA0C0F93EA32
:100388000C0F6FD01A4480EA010C400218BF5FEAD4
:1003980041211ED04FF0006343EA501043EA511147
:1003A800A0FB01310CF00040B1F5000F3EBF490041
:1003B80041EAD3715B0040EA010062F17F02FD2A45
:1003C8001DD8B3F1004F40EBC25008BF20F0010028
:1003D800704790F0000F0CF0004C08BF49024CEA3F
:1003E800502040EA51207F3AC2BFD2F1FF0340EAD1
:1003F800C250704740F400004FF00003013A5DDC42
:1004080012F1190FDCBF00F000407047C2F1000282
:10041800410021FA02F1C2F1200200FA02FC5FEA6F
:10042800310040F1000053EA4C0308BF20EADC70B9
:10043800704792F0000F00F0004C02BF400010F42B
:10044800000F013AF9D040EA0C0093F0000F01F0D8
:10045800004C02BF490011F4000F013BF9D041EAFA
:100468000C018FE70CEAD15392EA0C0F18BF93EAFC
:100478000C0F0AD030F0004C18BF31F0004CD8D126
:1004880080EA010000F00040704790F0000F17BFAD
:1004980090F0004F084691F0000F91F0004F14D0F3
:1004A80092EA0C0F01D142020FD193EA0C0F03D14B
:1004B8004B0218BF084608D180EA010000F000404E
:1004C80040F0FE4040F40000704740F0FE4040F429
:1004D800400070474FF0FF0C1CEAD0521EBF1CEAC8
:1004E800D15392EA0C0F93EA0C0F69D0A2EB0302E6
:1004F80080EA010C49024FEA402037D04FF0805380
:1005080043EA111143EA10130CF000408B4238BF44
:100518005B0042F17D024FF4000C8B4224BF5B1A52
:1005280040EA0C00B3EB510F24BFA3EB510340EAA0
:100538005C00B3EB910F24BFA3EB910340EA9C004E
:10054800B3EBD10F24BFA3EBD10340EADC001B01BE
:1005580018BF5FEA1C1CE0D1FD2A3FF650AF8B4262
:1005680040EBC25008BF20F0010070470CF0004C6F
:100578004CEA50207F32C2BFD2F1FF0340EAC2509A
:10058800704740F400004FF00003013A37E792F05B
:10059800000F00F0004C02BF400010F4000F013AB9
:1005A800F9D040EA0C0093F0000F01F0004C02BFB4
:1005B800490011F4000F013BF9D041EA0C0195E71D
:1005C8000CEAD15392EA0C0F08D142027FF47DAFB6
:1005D80093EA0C0F7FF470AF084676E793EA0C0FA6
:1005E80004D14B023FF44CAF08466EE730F0004CA4
:1005F80018BF31F0004CCAD130F000427FF45CAF34
:1006080031F000437FF43CAF5FE700BF42000ED2F9
:10061800B2F1FE4F0BD34FF09E03B3EB126209D435
:100628004FEA002343F0004323FA02F070474FF0EB
:100638000000704712F1610F01D1420202D14FF060
:10064800FF3070474FF00000704700BF7BB972B9A8
:100658000029BEBF00204FF0004106E008BF002877
:100668001CBF6FF000414FF0FF3000F057B8ADF1FC
:10067800080C6DE904CE002909DB002B1ADB00F019
:100688004FF8DDF804E0DDE9022304B0704740428A
:1006980061EB4101002B1BDB00F042F8DDF804E0C0
:1006A800DDE9022304B0404261EB4101524263EBB1
:1006B80043037047524263EB430300F031F8DDF81F
:1006C80004E0DDE9022304B0404261EB41017047D8
:1006D800524263EB430300F023F8DDF804E0DDE960
:1006E800022304B0524263EB4303704753B94AB93B
:1006F800002908BF00281CBF4FF0FF314FF0FF3022
:1007080000F00CB8ADF1080C6DE904CE00F008F863
:10071800DDF804E0DDE9022304B07047704700BF4C
:100728002DE9F04F07468C460846099E15463C467B
:100738001946002B40F0C5808242B2FA82F746D9AA
:100748004FB1C7F1200E00FA07F3BD4024FA0EFEA0
:10075800BC404EEA030C4FEA15481FFA85FE220CEE
:10076800BCFBF8F908FB19C309FB0EFA42EA03437C
:100778009A4528D9EB1809F1FF3004D29A4502D9D5
:10078800A9F102002B44A3EB0A03A4B2B3FBF8F2CD
:1007980008FB123302FB0EFE44EA0344A64514D9B3
:1007A8002C1902F1FF3303D2A64501D9931E2C441C
:1007B800A4EB0E0443EA00401EB1FC400023346061
:1007C8007360BDE8F08F4846DDE71346F0E702B9ED
:1007D800FFDE87BB831A01214FEA154EAAB2200C0F
:1007E800B3FBFEFC0EFB1C330CFB02F840EA034390
:1007F800984562D9EB180CF1FF3004D2984502D91C
:10080800ACF102002B44A3EB0803A4B2B3FBFEFC3B
:100818000EFB1C330CFB02F244EA0344A2424ED9FD
:100828002C190CF1FF3304D2A24202D9ACF1020315
:100838002C44A41ABEE7C7F1200CBD4000FA07F308
:1008480020FA0CF84FEA154E24FA0CFCBC404CEA8E
:100858000302ABB2B8FBFEFC110C0EFB1C800CFBB8
:1008680003F941EA0040814523D928180CF1FF31EA
:1008780004D2814502D9ACF102012844A0EB090059
:1008880092B2B0FBFEFC0EFB1C000CFB03F842EA24
:10089800004398450FD9EB180CF1FF3204D2984564
:1008A80002D9ACF102022B44A3EB080342EA01414E
:1008B80092E76146E2E76246F6E76046A3E76346E9
:1008C800B7E7834205D90EB1C6E900700021084692
:1008D80077E7B3FA83F181B9834201D3BA420AD8E0
:1008E800BC1A60EB030301209C46002E67D0C6E9C2
:1008F800004C002165E70846F7E7C1F1200C8B4062
:1009080002FA01F522FA0CF420FA0CFB27FA0CF291
:100918008F401C4300FA01F34FEA144913431FFAAE
:1009280084FE1A0CBBFBF9F809FB18BB08FB0EFA8E
:1009380042EA0B4292453ED9A21808F1FF3004D290
:10094800924502D9A8F102002244A2EB0A029BB206
:10095800B2FBF9F809FB182208FB0EFE43EA024233
:1009680096452AD9A21808F1FF3304D2964502D930
:10097800A8F10203224443EA0040A2EB0E02A0FBC6
:1009880005939A42CE46984602D306D14F4504D2E3
:100998000138B9EB050E63EB040886B1B7EB0E031B
:1009A80062EB080707FA0CFCCB40CF404CEA030384
:1009B800C6E900379DE74046C7E74346DBE73146CF
:1009C800FFE600000000000038B50446002A44D0C5
:1009D800072A54D118684FEAE07E4FEA4E1C4CEAC9
:1009E800D06C4101091A6CEB0E0C4FEA4C2C4CEA06
:1009F800D15C490209184EEB0C0C4FEA8C1545EAFC
:100A080091658A01521A65EB0C0C12184EEB0C0E0C
:100A180059688B184EEBE171012B71F1000212DB62
:100A28001D4818181AA3D3E9002341F10001FFF764
:100A38000DFE80B20FF060FB011E23DBC9B2204619
:100A48001CF0DEFA1DE01548181811A3D3E900239D
:100A580061F10001FFF7FAFDEBE75968104A82FBE4
:100A68000102C917C1EBA21189B218880FF026FB41
:100A7800011E0ADBC9B220461CF0E7FA01E06FF05C
:100A8800850038BD6FF08500FBE76FF08500F8E75B
:100A98003AA39500000000009DD14A00632EB5FFDF
:100AA800D34D621080B582B000AF012914BF002178
:100AB80001212E4B19701B78002B45D02C4802239E
:100AC8003B7188B06B4613F110023FD04FF00D0C0C
:100AD80022B1BCF1040F01DD2649596102213970A8
:100AE8001AB1BCF1080F00DD98611AB103F11C01BD
:100AF800002070B3BCF10C0F34DD4FF00D0C42B187
:100B08000321397100217971B9710121F97178686E
:100B1800186100216FF300016FF341016FF3820147
:100B28006FF3C501032363F38811CCF3090C6CF34D
:100B380052216FF3DE416FF3DF7100230E4802F09C
:100B4800C1FD0837BD4680BD0C48B8E76FF0004CC2
:100B5800BEE707F1080E86441EF808EC01F801EB21
:100B68000130C6E76FF01B0CC9E700BF712B0020EE
:100B7800640702006C07020008050200580702001B
:100B880080B582B000AF012914BF002101212E4B8E
:100B980019701B78002B45D02C4802233B7188B074
:100BA8006B4613F110023FD04FF00D0C22B1BCF18F
:100BB800040F01DD26495961022139701AB1BCF1CF
:100BC800080F00DD98611AB103F11C01002070B311
:100BD800BCF10C0F34DD4FF00D0C42B1032139711B
:100BE80000217971B9710121F971786818610021C2
:100BF8006FF300016FF341016FF382016FF3C501D9
:100C0800032363F38811CCF3090C6CF352216FF3BF
:100C1800DE416FF3DF7100230E4802F053FD083701
:100C2800BD4680BD0C48B8E76FF0004CBEE707F141
:100C3800080E86441EF808EC01F801EB0130C6E7FF
:100C48006FF01B0CC9E700BF702B0020640702007F
:100C58006C070200080502005807020080B582B040
:100C680000AF012914BF002101212E4B19701B78F8
:100C7800002B45D02C4802233B7188B06B4613F1FA
:100C880010023FD04FF00D0C22B1BCF1040F01DD72
:100C980026495961022139701AB1BCF1080F00DDEB
:100CA80098611AB103F11C01002070B3BCF10C0F5C
:100CB80034DD4FF00D0C42B10321397100217971F7
:100CC800B9710121F9717868186100216FF3000189
:100CD8006FF341016FF382016FF3C501032363F3DF
:100CE8008811CCF3090C6CF352216FF3DE416FF3DA
:100CF800DF7100230E4802F0E5FC0837BD4680BDD1
:100D08000C48B8E76FF0004CBEE707F1080E8644C0
:100D18001EF808EC01F801EB0130C6E76FF01B0C78
:100D2800C9E700BF722B0020640702006C070200AD
:100D3800080502005807020090B583B000AF0C46C2
:100D4800224B186820B119F056FE204B00221A6079
:100D580088B06B4613F1100231D00C201AB1042868
:100D680001DD1B49596112B1082800DD9C610B287F
:100D780028DD4FF00C0C3AB103213971002179714B
:100D8800B971F9717868186100216FF300016FF388
:100D980041016FF382016FF3C501032363F38811E7
:100DA8000CF47B7C6CF352216FF3DE416FF3DF713F
:100DB8000023084802F086FC0C37BD4690BD6FF052
:100DC8000040CBE76FF01B0CD5E700BFB018002040
:100DD8007C07020008050200B0B588B000AF002902
:100DE8003FD008466C4688B06B4613F1100232D0EB
:100DF8000C211AB1042901DD304D5D6112B10829B9
:100E080000DD98610B2929DD4FF00C0C3AB1032164
:100E1800397100217971B971F97178681861002107
:100E28006FF300016FF341016FF382016FF3C501A6
:100E3800012363F388110CF47B7C6CF352216FF36C
:100E4800DE416FF3DF7100231D4802F03BFCA5462D
:100E58002037BD46B0BD6FF00041CAE76FF01B0CEC
:100E6800D4E70446174BFB6102233B7100237B71D7
:100E7800BB71FB717A68BA61194663F3000163F3C9
:100E8800410163F3820163F3C501032262F3881110
:100E9800082262F3522163F3DE4163F3DF7107F145
:100EA8001802074802F00EFC074B1B68002BCFD135
:100EB800204619F083FD044B1860C9E79807020023
:100EC80008050200B4070200B0180020F0B595B07C
:100ED80002AF00283ED004466D4688B002AB13F13D
:100EE800100231D00C211AB1042901DD644858617F
:100EF80012B1082900DD9C610B2928DD0C243AB1C8
:100F08000321397000217970B970F9703868186157
:100F180000216FF300016FF341016FF382016FF35A
:100F2800C501012363F3881104F47B7363F3522131
:100F38006FF3DE416FF3DF710023524802F0C2FB0A
:100F4800AD464C37BD46F0BD6FF00041CBE76FF0C2
:100F58001B04D4E74C4BFB6202233B7000247C70DB
:100F6800BC70FC703B68BB62214664F3000164F30B
:100F7800410164F3820164F3C501032666F3881115
:100F8800082363F3522164F3DE4164F3DF712346DF
:100F980007F128023B4802F095FB07F1040C3B4D92
:100FA8000FCDACE80F002B68CCF800300094234636
:100FB80032463749381D09F0F7FD044600283BD072
:100FC8006D4688B002AB13F110022FD00C211AB174
:100FD800042901DD2F48586112B1082900DD9C6100
:100FE8000B2926DD0C243AB10321397000217970D0
:100FF800B970F9703868186100216FF300016FF358
:1010080041016FF382016FF3C501012363F3881176
:1010180004F47B7363F352216FF3DE416FF3DF71E6
:101028000023184802F04EFBAD468AE76FF00041F6
:10103800CDE76FF01B04D6E7174B7B6402233B70A8
:1010480000237B70BB70FB703A683A64194663F3FF
:10105800000163F3410163F3820163F3C5010322D5
:1010680062F38811082262F3522163F3DE4163F3CD
:10107800DF7107F14002034802F024FB61E700BF7B
:10108800C007020008050200E0070200700602001F
:10109800BC080200F8070200200802002DE9F04F02
:1010A800A3B000AF00F0C0FB00283CD08446E8465F
:1010B80088B06B4613F1100200F087800C211AB13A
:1010C800042901DD4F4858611AB1082901DDC3F828
:1010D80018C00B297CDD4FF00C0C5AB1032187F89E
:1010E8002810002187F8291087F82A1087F82B1074
:1010F800B86A186100216FF300016FF341016FF3C3
:1011080082016FF3C501012363F388110CF47B732B
:1011180063F352216FF3DE416FF3DF7100233A4826
:1011280002F0D0FAC546394808F00EFE8446D0B31E
:10113800E84688B06B4613F110024CD00C211AB166
:10114800042901DD324858611AB1082901DDC3F8C4
:1011580018C00B2942DD4FF00C0C5AB1032187F857
:101168002810002187F8291087F82A1087F82B10F3
:10117800B86A186100216FF300016FF341016FF342
:1011880082016FF3C501012363F388110CF47B73AB
:1011980063F352216FF3DE416FF3DF7100231A48C6
:1011A80002F090FAC5464FF480311A4816F0F8FD5F
:1011B8004FF48031184816F0F3FD00233B61FB60C3
:1011C8007B61BB60FB61A046EFE16FF0004176E711
:1011D8006FF01B0C81E76FF00041B0E76FF01B0C5C
:1011E800BBE70123FB6011E201233B61FA68002A97
:1011F80000F0DC82FB6901339BB2FB613C617A61E0
:10120800FC60CEE14C08020008050200D50E000083
:10121800C0070200C4090200CC09020000233B6297
:101228007B627B69002B40F00D82FB69BB61BB6868
:10123800FB6100F033FB002840F0088207F1200032
:1012480000F066FB07F1240000F00EFCB749386A8D
:10125800FFF78CF8FFF7DAF980B2B54B1880B54B79
:10126800A3FB003040096C4688B06B4613F11002AE
:1012780000F013820C212AB1042903DDDFF8B8C27B
:10128800C3F814C012B1082900DD98610B2940F396
:1012980007820C215AB1032087F82800002087F81C
:1012A800290087F82A0087F82B00B86A18616FF3BD
:1012B80000056FF341056FF382056FF3C50503233E
:1012C80063F3881501F47B7161F352256FF3DE45F2
:1012D8006FF3DF7500232946984802F0F3F9A54615
:1012E8002120002115F02AFE786AFFF78FF980B2D5
:1012F800934B18806C4688B06B4613F1100200F0CF
:10130800D2810C212AB1042903DDDFF82CC2C3F8ED
:1013180014C012B1082900DD98610B2940F3C68179
:101328000C215AB1032087F82800002087F82900EB
:1013380087F82A0087F82B00B86A18616FF300064F
:101348006FF341066FF382066FF3C506032363F359
:10135800881601F47B7161F352266FF3DE466FF352
:10136800DF7600233146754802F0ACF9A546212006
:10137800002115F0E3FD724A13881B029BB213800B
:10138800F9690B4413806F4B198008466C4688B086
:101398006B4613F1100200F08C810C212AB104294C
:1013A80003DDDFF894C1C3F814C012B1082900DDC9
:1013B80098610B2940F380810C215AB1032087F8EA
:1013C8002800002087F8290087F82A0087F82B00D2
:1013D800B86A18616FF3000A6FF3410A6FF3820A63
:1013E8006FF3C50A032363F3881A01F47B7161F371
:1013F800522A6FF3DE4A6FF3DF7A002351464F48D3
:1014080002F060F9A5462120002115F097FD182269
:10141800002107F1280018F043FE4B4BFB62444BB8
:101428003B630223BB8607F1280100200DF002FD73
:101438008446002800F049816C4688B06B4613F159
:10144800100200F03C810C211AB1042901DD3F484B
:1014580058611AB1082901DDC3F818C00B2940F3F7
:1014680031810C215AB1032087F82800002087F821
:10147800290087F82A0087F82B00B86A18616FF3EB
:1014880000086FF341086FF382086FF3C508012362
:1014980063F3881801F47B7363F352286FF3DE4813
:1014A8006FF3DF7800234146244802F00BF9A54684
:1014B80040F6CD40002115F041FD1822002107F12A
:1014C800280018F0EDFD224BFB621D4B3B63022305
:1014D800BB8607F1280100200DF0ACFC84460028EB
:1014E80000F02B816C4688B06B4613F1100200F0B7
:1014F8001E810C211AB1042901DD144858611AB162
:10150800082901DDC3F818C00B2940F313810C2109
:1015180002B3032087F82800002087F8290087F8FD
:101528002A0087F82B00B86A186113E00000C84247
:101538006C2B00201F85EB51B8240200080502001F
:10154800682B00206A2B0020FC0802008408020097
:10155800380902006FF3000B6FF3410B6FF3820B36
:101568006FF3C50B012363F3881B01F47B7363F3EB
:10157800522B6FF3DE4B6FF3DF7B002359468D4808
:1015880002F0A0F8A54640F6CD40002115F0D6FCA3
:1015980040F6CD40002115F0D1FCFB69BB60BB696A
:1015A800FB612120002115F0C9FC83480369BB6158
:1015B80083685B6807F128019847044620B9BB692E
:1015C8001A68BB6A5340BB6214B9BC6AC4F34014BE
:1015D800002C7FF423AE784803697B6183685B68DD
:1015E80007F128019847B86120B97B691A68BB6A76
:1015F8005340BB62BB691BB9BB6AC3F30013BB6131
:10160800BB69002B3FF4EDAD3B69BB616A480369D8
:101618007B6183685B6807F128019847034620B916
:101628007A691168BA6A4A40BA6213B9BB6AC3F3E5
:101638000013002B7FF4D8ADBB69002B00F0B180FC
:101648003B61D3E500237B61BB61F2E55B4B7B65C6
:10165800022387F82830002387F8293087F82A30B2
:1016680087F82B30BA6A3A6563F3000963F34109D6
:1016780063F3820963F3C509012262F3881908221A
:1016880062F3522963F3DE4963F3DF7907F150020D
:101698004946484802F016F8D0E56FF00041EAE5FF
:1016A8006FF01B01F6E56FF000412BE66FF01B01B0
:1016B80037E66FF0004171E66FF01B017DE66FF0D1
:1016C8000041C1E66FF01B01CCE63D4BFB660223EF
:1016D80087F82830002387F8293087F82A3087F8D8
:1016E8002B30BA6ABA667A6863F3000263F3410280
:1016F80063F3820263F3C5021146032262F3881181
:10170800082262F3522163F3DE4163F3DF717960EB
:1017180007F16802274801F0D5FF2A4B1B8823B937
:101728004FF48072274B1A80C2E60022FAE76FF066
:101738000041DFE66FF01B01EAE6214BC7F8843071
:10174800022387F82830002387F8293087F82A30C1
:1017580087F82B30BA6AC7F880203A6863F300022A
:1017680063F3410263F3820263F3C5021146032265
:1017780062F38811082262F3522163F3DE4163F3B6
:10178800DF71396007F180020A4801F09BFF0E4BB8
:101798001B8823B94FF480720B4B1A80F3E60022A2
:1017A800FAE7BB693B6101237B61FAE601237B61B0
:1017B800F7E600BF08050200040102006C080200F9
:1017C800980802006C2B0020682B002070B582B0AE
:1017D80002AB03E903000446002806DB002902DB0C
:1017E8004FF07E5602E00E4E00E00D4E002CB8BFC2
:1017F8006442009401980028B8BF40420190FEF767
:1018080061FD0849FEF766FE05462046FEF75AFDCB
:101818002946FEF7A3FC3146FEF7A8FD02B070BDCD
:10182800000080BF00247449184B1B684BB300B5F7
:1018380089B0174B079302228DF8042000238DF8F6
:1018480005308DF806308DF8073001990691194654
:1018580063F3000163F3410163F3820163F3C5019C
:1018680062F38811082262F3522163F3DE4163F3C5
:10187800DF7106AA074801F025FF002009B05DF8CE
:1018880004FB024B044A1A6000207047B418002079
:10189800D4090200D8050200DC01020000B589B0B5
:1018A800184B186830B18368DB683921984709B04C
:1018B8005DF804FB144B079302238DF804300023D2
:1018C8008DF805308DF806308DF80730019A0692AC
:1018D800194663F3000163F3410163F3820163F383
:1018E800C501012262F38811082262F3522163F3D1
:1018F800DE4163F3DF7106AA044801F0E3FE13201A
:10190800D5E700BFB4180020F0090200D80502008E
:10191800F0B591B000AF002878D005464D4B186857
:1019280000284FD083681B6907F108020D219847EA
:10193800044600283ED06E4688B06B4613F110026C
:1019480032D00C211AB1042901DD4348586112B183
:10195800082900DD9C610B2929DD0C253AB10321FA
:10196800397100217971B971F971786818610021AC
:101978006FF300016FF341016FF382016FF3C5014B
:10198800012363F3881105F47B7363F352216FF32A
:10199800DE416FF3DF710023304801F093FEB54656
:1019A80020464437BD46F0BD6FF00041CAE76FF0EE
:1019B8001B05D3E707F1080393E80300FFF706FFC9
:1019C8002860EDE7264BFB6302233B7200237B7202
:1019D800BB72FB72BA68BA63194663F3000163F31A
:1019E800410163F3820163F3C501012262F38811A7
:1019F800082262F3522163F3DE4163F3DF7107F1DA
:101A08003802164801F05EFE1324C9E7154B7B62C5
:101A180002233B7200237B72BB72FB72BA683A6284
:101A2800194663F3000163F3410163F3820163F331
:101A3800C501012262F38811082262F3522163F37F
:101A4800DE4163F3DF7107F12002044801F03AFE3A
:101A58001624A5E7B4180020080A0200D8050200D9
:101A6800F00902002C0A0200F0B591B000AF00287E
:101A780078D005464D4B186800284FD083681B69FD
:101A880007F1080210219847044600283ED06E4608
:101A980088B06B4613F1100232D00C211AB1042918
:101AA80001DD4348586112B1082900DD9C610B290A
:101AB80029DD0C253AB10321397100217971B971F9
:101AC800F9717868186100216FF300016FF3410123
:101AD8006FF382016FF3C501012363F3881105F4E5
:101AE8007B7363F352216FF3DE416FF3DF710023E1
:101AF800304801F0E7FDB54620464437BD46F0BD05
:101B08006FF00041CAE76FF01B05D3E707F1080340
:101B180093E80300FFF75AFE2860EDE7264BFB63C6
:101B280002233B7200237B72BB72FB72BA68BA63F2
:101B3800194663F3000163F3410163F3820163F320
:101B4800C501012262F38811082262F3522163F36E
:101B5800DE4163F3DF7107F13802164801F0B2FD88
:101B68001324C9E7154B7B6202233B7200237B7267
:101B7800BB72FB72BA683A62194663F3000163F3F9
:101B8800410163F3820163F3C501012262F3881105
:101B9800082262F3522163F3DE4163F3DF7107F138
:101BA8002002044801F08EFD1624A5E7B418002091
:101BB800080A0200D8050200F00902002C0A0200F7
:101BC8002DE9F04F8DB005920393134602F00402FD
:101BD8000192C3F3C20210F00303029340F035826E
:101BE80007468A460132041D002842D027B1E31B6C
:101BF8000433534500F22C82039B5D1EDDF808B0C8
:101C0800CDF810B0CDF818B000264FF00408C14642
:101C18000FB1039B2360531E0793002A40F383816F
:101C2800059B13F0020221D00120E11B8B081AB199
:101C3800B1F5007F80F01282BBF10F0F00F2118224
:101C4800002F00F08881DBB20CAA5A4402F8103C3D
:101C5800002800F07C8163F07F030CAA5A4402F844
:101C6800103C049B013304930BF1010B0434002254
:101C780007E001F0070A5444CAF1080AB6E700264B
:101C88001D466B1C6978002900F07981002E00F050
:101C9800BD8020395A29F2D801A050F821F000BFA0
:101CA800891C0000871C0000871C0000891C00009C
:101CB800871C0000871C0000871C0000871C000090
:101CC800871C0000871C00006D1E0000891C000096
:101CD800871C0000891C0000891C0000871C00006C
:101CE800891C0000891C0000891C0000891C000058
:101CF800891C0000891C0000891C0000891C000048
:101D0800891C0000891C0000871C0000871C00003B
:101D1800871C0000871C0000871C0000871C00002F
:101D2800871C0000B71E0000871C0000871C0000ED
:101D3800871C0000B71E0000B71E0000B71E000079
:101D4800871C0000871C0000871C0000871C0000FF
:101D5800891C0000871C0000871C0000871C0000ED
:101D6800871C0000871C0000871C0000871C0000DF
:101D7800871C0000871C0000871C0000871C0000CF
:101D88003D1E0000871C0000871C0000871C000007
:101D9800871C0000871C0000871C0000871C0000AF
:101DA800871C0000B71E0000871C00003D1E0000B5
:101DB8003D1E0000B71E0000B71E0000B71E000041
:101DC800891C00003D1E0000251E0000871C000025
:101DD800891C0000871C0000151F00003D1E000024
:101DE800151F0000871C0000871C0000631E0000F0
:101DF800351E00003D1E0000871C0000871C0000E7
:101E08003D1E0000871C00002D1E000025297FF4C0
:101E180037AF01264FF00408C14631E74FF00808F4
:101E2800C1462DE74FF00408C14629E74FF00408E2
:101E3800C14625E729786C2901D0002612E013F85D
:101E4800021C6C2904D000264FF00408C14609E0A2
:101E580000264FF00808C14604E0324600264FF03D
:101E68000408C14604EB0805013DC8F100010D4016
:101E78002C4627B1E91B4944514500F2EC80002A61
:101E880049D1B9F1040F72D0B9F1080F40F0EC80D4
:101E98001699073121F0070101F108001690D1E9E0
:101EA80000010FB1C5E9000105F10804E8E6297849
:101EB8004C291BD01699073121F0070101F10800C0
:101EC8001690D1E90001073424F0070447B1E61B56
:101ED8000836564514D82D784C2D14D0C4E9000185
:101EE800083400264FF00808C146C9E6169907319C
:101EF80021F0070101F108001690D1E90001E2E79D
:101F08006FF01B009EE0C4E90001E9E700264FF0EE
:101F18000408C146A6E7169A111D16911268039285
:101F2800079A1D4674E6564B039A9A4204D3554BBA
:101F38009A420AD3002300E00023002B7FF470AEFE
:101F4800059B03F0020200206FE60123F5E7069BDC
:101F58000133069388E608B9019B13B10AF1010A17
:101F680082E6039818F02AF8831C9A447CE61699AE
:101F7800081D1690096807B129602C1D80E6E31B2F
:101F8800B3F5806F73D287B100223A609B083B702B
:101F9800019B73B1069BFB70049BBB7003BB029D46
:101FA800DDF81090DDF80C8031E05344A3F108000F
:101FB80048E0069B7B70EFE701339B45EFD90CAAFD
:101FC8001A4412F8101C12F9102C002AF4DA01F045
:101FD8007F01E21B013252454CD804F8011BEBE7A4
:101FE800029BEAE7019BF3B1029EE31B33440133F2
:101FF800534542D80CAB2B4413F8103C04F8013B72
:1020080032464146204618F01CF834440135AB45A9
:1020180017D9B9F1000FE5D00CAB2B4413F9103CDC
:10202800002BDFDAF2E70CAB2B4413F8103C57F81F
:102038002380002247F82320404617F0BFFF461CA4
:10204800D3E7E01B0DB0BDE8F08F6FF00D00F9E7A6
:102058006FF01B00F6E76FF01B00F3E76FF0150059
:10206800F0E76FF01500EDE76FF01500EAE76FF0A5
:102078001500E7E76FF01B00E4E76FF01B00E1E7EE
:10208800ECFF0100F43A02002DE9F04F91B006464A
:10209800934601931A9F029159B196F80280CDF8A0
:1020A8000080B8F1000F08D017F0010F10D10023FD
:1020B80004E015F0A8FE0290EFE7002396F803A0CD
:1020C800BAF1000F06D017F0020F1DD1002202E06E
:1020D8000123F3E7002202B9C3B13578AA000392BD
:1020E80006EB8505BBF1000F1CD0002B40F0868065
:1020F800009B002B00F08E8017F0040F40F08E80BC
:102108000020814680467CE00122E4E7BBF1000F15
:1021180003D0019A02993046D847029C204611B054
:10212800BDE8F08F029C03BB009BA3B317F0040922
:1021380028D01D444FF0000924E00444013508F17B
:102148000108D0451BD22A78002356F822201946C8
:10215800584615F06DFE002FEFD01C9B9945ECD228
:1021680027F8190009F10109E7E74FF00008C1460F
:10217800CDF804A0DDF800A01A971B9FE1E7DDF871
:1021880004A01A9F07F0050300934FF00008CDF84C
:1021980004B0B34623E0DDF80090F3E700231E46C1
:1021A80013B117F0010F03D196B917F0020F0FD032
:1021B80000231946019815F03BFE1B9B3BB11C9B65
:1021C800994504D21B9B23F8190009F1010904441D
:1021D80016B1009B03B9013C013508F10108D0454F
:1021E8009CD22B785BF823206B4B9A42D6D36B4B4F
:1021F8009A4201D30023D2E70123D0E70BA84FF07E
:10220800000918B1009A294617F01BFF009B1D44CE
:10221800002317E0002081468046F2E7C14607A860
:102228004FF00008EDE7002139B317F0010F18D07F
:1022380008F1010110A8804408F8142C5FFA81F80D
:102248000135013353452DD22A7856F822105248C9
:102258008142E8D35148814201D30021E4E70121BA
:10226800E2E717F0040FEBD009F1010110A881444F
:1022780009F8242C5FFA81F9E2E717F0020F08D079
:1022880008F1010110A8804408F8142C5FFA81F8BD
:10229800D6E709F1010110A8814409F8242C5FFA56
:1022A80081F9CDE733788DF83C30737843448DF865
:1022B8003D3017F0020F0AD000238DF83F3017F099
:1022C800010F06D117F0040F32D1002302E04B466C
:1022D800F3E700238DF83E30306806900F983060A1
:1022E800019F3A4603993046D847041EFFF616AFB9
:1022F8000698306001973A46494607A8D84700280B
:1023080043DB27180098039B184401465144DDF825
:1023180004904A46029B591A2846D847041EFFF6DD
:10232800FDAE3D19002700965E46DDF86CB015E05D
:102338004B46CFE74FF0000A4A4601210DF117003E
:10234800B047002823DB0544534622464946304619
:1023580015F06EFD00281CDB05440137B8450EDD7D
:1023680010AB3B4413F8143C8DF81730009A52F820
:102378002340BBF1000FDDD03BF817A0DCE7019A42
:1023880000210846B0472C46C8E60446C6E604467F
:10239800C4E60446C2E600BFECFF0100F43A0200BE
:1023A800014B1860704700BF6402002010B586B06A
:1023B80004460390049100210591009103A9064861
:1023C80000F042FA059B049A934201DA0022E25493
:1023D800059806B010BD00BF397F01002DE9F04314
:1023E80083B0044608461546238B13F0080F05D121
:1023F80003F0070600230093019369E0012909D03F
:1024080043F02003238385F31188BFF36F8F03B054
:10241800BDE8F08343F010032383F4E7204615F06A
:10242800E6FD57E0D4F814904A466946204615F070
:10243800F7FD00275AE023691F680621204615F09A
:10244800AFFD4FF0000951E023695F680421204681
:1024580015F0A6FD4FF0000948E023699F680521A3
:10246800204615F09DFD4FF000093FE0002246E0B0
:10247800002244E043F00803238385F31188BFF367
:102488006F8F002944D1009B2BB14B4642466946C9
:10249800204615F03CFE17B125492046B8474FF0B5
:1024A8002003EFF3118583F31288BFF36F8F238B1B
:1024B80023F008032383238B13F0100F2ED023F06F
:1024C800100323830120268B06F0070600289AD0E4
:1024D8000228A3D0002896D00128A3D00328AAD088
:1024E8000428B1D00528B8D00027B946238B03F0BB
:1024F8000708B045BAD0A268002AB9D0012211460F
:10250800002AB7D1009A002AB4D1002FB2D1D2E75D
:102518004A464146204615F04BFDB4E713F0200F1C
:1025280004D023F0200323830220CCE70020CAE74D
:102538004581010070B582B0044600230360436002
:1025480083604B78252B02D04E1C01251FE0881C88
:10255800E37045E1237843F004032370B5B10136F5
:1025680014E0237843F008032370F7E7237843F057
:1025780010032370F2E7237843F020032370EDE77C
:10258800237843F040032370E8E7002545B3337808
:10259800203B102BF9D801A252F823F07525000032
:1025A80093250000932500007F2500009325000057
:1025B8009325000093250000932500009325000033
:1025C80093250000932500006B250000932500004B
:1025D8005D25000093250000932500008925000053
:1025E800237803F04403442B5FD00196237843F00B
:1025F8008003237033782A2B5CD001A816F0F4F9F5
:10260800019B9E420FD0237843F0800323706060C3
:10261800DBB2C3F34003002854DB002213432278C3
:1026280063F341022270019B01931B782E2B14BF88
:1026380000230123627863F341026270002B43D0C8
:10264800019B5A1C01925B782A2B3FD001A816F0F7
:10265800CBF9A0602378C3F3400300283EDB0022B7
:102668001343227863F341022270019803784C3BAC
:102678002E2B00F29D80DFE803F0909B9B9B9B9B99
:102688009B9B9B9B9B9B9B9B9B9B9B9B9B9B9B9B92
:102698009B9B9B9B9B9B339B579B459B9B9B9B9B84
:1026A8009B9B899B9B9B9B9B820023786FF3861344
:1026B80023709AE7637843F001036370334601336C
:1026C8000193B1E70122A9E70198CFE7637843F0C6
:1026D80004036370104601300190C7E70122BFE789
:1026E800421C4378682B06D06378022161F3C60345
:1026F800637010461EE06378012262F3C6036370BC
:10270800023017E0421C43786C2B06D06378032113
:1027180061F3C603637010460CE06378042262F329
:10272800C6036370023005E06378052262F3C603CE
:102738006370013010F8013BE370A3F14102372ABE
:102748007DD8DFE802F05E7C7C7C5E5E5E7C7C7C13
:102758007C7C7C7C7C7C7C7C7C7C7C7C7C4F7C7CDE
:102768007C7C7C7C7C7C5E7C4F3A5E5E5E7C3A7CCA
:102778007C7C7C654F717C7C717C4F7C7C4F637862
:10278800062262F3C60363700130D3E76378072239
:1027980062F3C60363700130CCE76378082262F302
:1027A800C60363700130237843F002032370C1E746
:1027B80063786FF3C6036370BCE7A278012161F305
:1027C8000202A270627802F07802402A10D0632BCD
:1027D80013D02378C3F34002154365F341032370F4
:1027E80002B070BDA278022161F30202A270E9E78B
:1027F800217841F001012170E9E7151E18BF012574
:10280800E7E7A378042262F30203A3700125E0E757
:10281800A378032262F30203A370637803F07803BA
:10282800402BD6D10125D4E7A378032262F3020313
:10283800A370637813F0780FCBD00125C9E723780C
:1028480043F001032370C4E72DE9F04F91B0064629
:102858000D4691460393002499F80000002800F0E3
:10286800D582252808D009F101092946B047002852
:10287800C0F2CD820134EFE7002304930593069359
:10288800079308930993494606A8FFF753FE029059
:102898009DF8193013F0010F00F09780039B1A1D63
:1028A80003921F68002FC0F288809DF8193013F03A
:1028B800040F00F09C80039B1A1D0392D3F800A01C
:1028C800BAF1000FC0F28A800023079308939DF89D
:1028D8001A3003F007039DF81910C1F3C301012B47
:1028E80000F08E80022B00F0D380042B00F02481AE
:1028F800032B00F03B819DF8188018F0030B40F083
:102908003B819DF81B30253B532B00F2E681DFE825
:1029180013F04001E401E401E401E401E401E4010D
:10292800E401E401E401E401E401E401E401E40177
:10293800E401E401E401E401E401E401E401E40167
:10294800E401E401E401E401E401E401E401E40157
:10295800E401E401E401E401E401E401E401E40147
:10296800E401E401E401E401E401E401E401E40137
:10297800E401E401E401E4018101E401E401E4018A
:10298800E401E401E401E401E401E401E4015E019D
:102998006701E401E401E401E4016701E401E40101
:1029A800E401E401BE018101A201E401E4014D0159
:1029B800E4018101E401E40181019DF8183043F04C
:1029C80004038DF818307F426FE79DF91830002B0B
:1029D80002DB4FF0FF3768E7079F66E79DF819307D
:1029E8006FF341038DF819304FF0FF3A6CE713F09D
:1029F800020F02D0DDF820A066E74FF0FF3A63E748
:102A0800CB1E042B04D8DFE803F00B1D2935350055
:102A1800039B1A1D03921B68DA170493059206E0BC
:102A2800039B1A1D03921B68DA1704930592012968
:102A380028D002297FF45FAFBDF91030DA1704936C
:102A4800059258E7039B073323F0070303F10802B5
:102A58000392D3E90023CDE90423E8E7039B073376
:102A680023F0070303F108020392D3E90023CDE919
:102A78000423DCE7039B1A1D03921B68DA170493EF
:102A88000592D4E79DF91030DA170493059232E7DE
:102A9800CB1E042B04D8DFE803F00B1F354141009F
:102AA800039B1A1D03921B680493002305931EE0E1
:102AB8009DF81B30632B07D0039B1A1D03921B68DC
:102AC80004930023059312E0039B1A1D03921B68CD
:102AD8000493002305930AE0039B073323F00703BD
:102AE80003F108020392D3E90023CDE90423012965
:102AF8001CD002297FF4FFAEBDF8103004930023E8
:102B08000593F8E6039B073323F0070303F1080254
:102B18000392D3E90023CDE90423E8E7039B1A1DB8
:102B280003921B68049300230593E0E79DF8103097
:102B3800049300230593DEE608290BD0039B073393
:102B480023F0070303F108020392D3E90023CDE938
:102B58000423D0E6039B073323F0070303F108029D
:102B68000392D3E90023CDE90423C4E6039B1A1D8D
:102B780003921B680493BEE6029F3B464A462946D9
:102B8800304615F0ADFF0028C0F241810444B94633
:102B980062E629462520B0470028C0F23881013472
:102BA800D8460DF13E0A4FF000099BE0DDF8109081
:102BB800BAF1000F07DB5146484617F008FA09EB4F
:102BC800000AD8468EE0484617F0F8F9F7E7049B64
:102BD8008DF82830D8460DF1290A0DF1280981E031
:102BE80018F0080F05D118F0100804D04FF020088D
:102BF80001E04FF02B08049A059B002B02DB04929E
:102C0800059308E0524263EB4303049205934FF0A7
:102C18002D0800E0D8460DF13E0300930AAB06AA42
:102C2800DDE9040115F0F2FE8146BAF1000FC0F2A9
:102C380088800DF13E03A3EB09039DF818206FF37C
:102C480086128DF818209A457ED9AAEB03030793BC
:102C58000DF13E0A46E0049828B9D846DFF8B4A139
:102C6800AAF105093EE00DF13E0300930AAB06AA5E
:102C7800002115F0CBFE81469DF81A3043F0100371
:102C88008DF81A3078238DF81B30D846CDE7049A92
:102C98009DF81930C3F3C303072B06D8DFE803F008
:102CA800040B0D0F1115191B1460D8460DF13E0ABF
:102CB8004FF0000916E01470F7E71480F5E7146088
:102CC800F3E7E31714605360EFE7E317146053600A
:102CD800EBE71460E9E71460E7E7D8460DF13E0A30
:102CE8004FF00009B9F1000F00F08D80AAEB09033D
:102CF800B8F1000F00D001339DF81A2012F0100F20
:102D080025D0023307990B4412F0400F01D0089ADE
:102D18001344002F31DDFF1A9DF8183013F0040F0B
:102D28002BD113F0400F17D0B8F1000F17D0294658
:102D38004046B04700286ADB0134D8464FF0300BD4
:102D48000FE00DF13E0ACDE70DF13E0ACAE712F099
:102D5800080FD7D00133D5E74FF0200B01E04FF033
:102D6800300B3B465F1E002B07DD29465846B0470F
:102D780000284CDB01343B46F4E7B8F1000F05D0DE
:102D880029464046B047002841DB01349DF81A30F7
:102D9800C3F30012C3F3C003134305D02946302000
:102DA800B047002833DB01349DF81A3013F0100FB8
:102DB80006D029469DF81B00B047002827DB0134C0
:102DC800079B03F1FF38002B07DD29463020B04769
:102DD80000281CDB01344346F3E753464A4629469C
:102DE800304615F07DFE002811DB0444002F07DD76
:102DF80029462020B047002809DB0134013FF5E7C8
:102E0800DDF8089028E5DDF8089025E5204611B0A2
:102E1800BDE8F08F450A020008B54FF02002EFF335
:102E2800118382F31288BFF36F8F03F0FDFB034811
:102E380015F09AF802F08EFAFCE700BF480A020083
:102E48004FF02003EFF3118C83F31288BFF36F8FD9
:102E580001211E4BC3F800151D4A0223C2F8D036C3
:102E68001C48D0F8003223F0E04343F04053C0F848
:102E78000032D0F8043223F0E04343F04053C0F866
:102E88000432C2F80417C2F80419C2F8001B002162
:102E98000AE01148803250F8223023F0E04343F032
:102EA800805340F822300131032908D80B4B5B5C72
:102EB80003F01F025B09012BEBD00648EAE78CF30D
:102EC8001188BFF36F8F0020704700BF00100050BB
:102ED800004000500025845000288450780A0200E1
:102EE80070B108B50246074B1B680748A0FB0313DF
:102EF8009B0C03FB02F0054B43F00103984708BD08
:102F0800704700BFD804002083DE1B43500702002F
:102F1800062800D07047044B0122C3F80025BFF3F0
:102F28004F8F20BFFDE700BF0040005010B582B0B2
:102F380003460D48009008220192826854686CB1DB
:102F48000A4A0821A047002806DB009883681B6905
:102F58003BB101220199984702B010BD6FF05700AC
:102F6800F1E76FF05700F7E7640102007B9001007A
:102F780010B5C4B20123A340054AC2F80835C0F30E
:102F880007200FF041FE204610F0D6FC10BD00BF10
:102F98000070015038B504460D46C0F307200FF005
:102FA800D9FCC4F307439B00DBB23DB1E4B2064A47
:102FB80044F00044D450C0F8804038BD0021C0F827
:102FC8008010014AD150F8E780A0025070B505463C
:102FD8000E46040EA40004F58074C0F307201BF00D
:102FE80022F846B1EDB245F00045C0F88050A4B2D1
:102FF800044B1D5170BD0022C0F88020A4B2014BC3
:103008001A51F7E780A0025070B582B00446C0F3A9
:10301800072630460FF0A6FC054600212046FFF79C
:10302800D5FF01212046FFF7B5FF05F132020194D3
:10303800044B00935200002330461BF018F802B0EE
:1030480070BD00BF67900100B0B582B000AF381DF9
:1030580010F06AFC314B98423BD06FF012046D4679
:1030680088B06B4613F1100252D00C211AB1042912
:1030780001DD2B48586112B1082900DD9C610B293C
:1030880049DD4FF00C0C3AB10321397000217970F9
:10309800B970F9703868186100216FF300016FF397
:1030A80041016FF382016FF3C501012363F38811B6
:1030B8000CF47B7363F352216FF3DE416FF3DF711E
:1030C8000023184800F0FEFAAD4620460837BD46F2
:1030D800B0BD0FF067FD041E16DB7C710723BB71C2
:1030E8000823FB717868FFF721FF041E09DB3B7991
:1030F800012101FA03F30C4AC2F804357868FFF796
:1031080065FF002CE1D0AAE7387910F015FCF8E744
:103118006FF00041AAE76FF01B0CB4E70000AD0B9D
:103128007C0A0200F00502000070015010F0EEB9B0
:10313800F8B50646002400E001340E4B0E4A9B1AEF
:10314800B4EB231F14DA0C4D05EB04156B685B799F
:10315800002BF1D03146284615F0AFFF0028EBD000
:103168002701054BDB591B68314628469847E3E79A
:10317800F8BD00BF280602000806020070B5064622
:103188000D46002403E02A46314698470134084B8F
:10319800084A9B1AB4EB231F08DA2301054A02EBFD
:1031A80004109B589B69002BEDD1EFE770BD00BF61
:1031B80028060200080602002DE9F04107460546E8
:1031C8000AE007EA0807144B03EB061673680422A3
:1031D8001968204600F064FAD5B195FAA5F6B6FA52
:1031E80086F60D4C04EB06140123B3406FEA03087E
:1031F80025EA0305237B002BEED03301064AD3587A
:103208001B69002BDDD0204698470028E4D1D8E779
:103218003846BDE8F08100BF080602002DE9F047F6
:1032280080460F46264BD3E8EF6F721CC3E8E12FA8
:103238000029F8D1002E3ED100240AE0214B03EBEF
:103248000919D9F8043004221968284600F028FA28
:1032580001341D4B1B4A9B1AB4EB231F1BDAA146F2
:10326800184D05EB04152B7B002BF1D02301154AD3
:1032780052F803A0DAF80C300BB128469847DAF870
:103288001030002BDAD0284698470028D6D00123E2
:10329800A3401E43DCE7B8F1000F0DD066B13046FD
:1032A800FFF78AFF0646002FF8D04FF4A4700021DC
:1032B80013F044FEF2E700263046BDE8F08700BF71
:1032C800C0180020080602002806020008B5064BB0
:1032D800186018B1054B1B68092B00DC08BD0448B1
:1032E80013F060F8FAE700BF04190020B8180020AE
:1032F8001007002008B5024813F054F808BD00BFB5
:103308001007002030B589B000220F490F481CF083
:1033180078FD0F4D00220023CDE9062300240494F4
:103328000E2303930294019400940A4B4FF44072C5
:10333800094928461CF08AF80849284612F044FE34
:10334800204609B030BD00BFFD320000900C0020BF
:10335800C80C002019360000802B0020B00A02009B
:10336800014B53F820007047BC0A020038B108B579
:10337800044A1060084600F0EFFB002008BD6FF01B
:10338800150070476802002008B5054B1B781BB173
:10339800034B01221A7008BD024813F003F8F7E73F
:1033A800732B002010070020094BD3E8EF2F0132C0
:1033B800C3E8E12F0029F8D100B97047054BD3E8DD
:1033C800EF2F013AC3E8E12F0029F6D0F7E700BF55
:1033D800BC180020B8180020044B00200246D3E88F
:1033E800EF0FC3E8E12F0029F9D17047BC1800207E
:1033F80038B5FFF7F1FF0546002400E001340B4B18
:103408000B4A9B1AB4EB231F0FDA094800EB041090
:1034180043685B79002BF1D02301054AD3585B68D8
:10342800002BEBD029469847E8E738BD280602006C
:1034380008060200034B18680028D4BF00200120AA
:10344800704700BFBC18002008B50249024815F0B3
:1034580021FC08BDC80A0200C418002008B50023D2
:10346800054A1370054A13604FF400410448FFF7FA
:103478007DFFFFF7E9FF08BD742B0020BC18002072
:10348800C790010008B5014600220023014815F045
:1034980028FC08BDC418002008B5024815F01EFD18
:1034A80008BD00BFC418002008B50146014815F042
:1034B80086FD08BDC418002008B5024815F0BCFDFB
:1034C80008BD00BFC41800200F4B187800B970471A
:1034D80010B5FFF7E1FF044668B10C4BD3E8EF2FB6
:1034E800013AC3E8E12F0029F8D12046FFF720FE72
:1034F8002046FFF7D9FFFFF79DFF10B9FFF7DCFF64
:1035080010BDFFF775FFF9E7732B0020B8180020EE
:10351800134B1B7803B1704710B500210120FFF74A
:103528007DFE002400E001340E4B0F4A9B1AB4EBD9
:10353800231F0CDA0C4800EB041043685B79002B5E
:10354800F1D02301084AD3589B689847EBE7FFF767
:10355800BBFF0028FBD1024B01221A7010BD00BF2F
:10356800742B0020280602000806020010B582B05D
:10357800194BD3E8EF2F511CC3E8E01F0028F8D1FE
:10358800164B1B7863B9164B1B68BBB1C2B10A2A2C
:1035980014D114481CF041FC134812F003FF0DE04D
:1035A8004FF02003EFF3118483F31288BFF36F8F7A
:1035B800FFF78AFF84F31188BFF36F8F02B010BD45
:1035C80000220023CDE900234FF4004200230548E0
:1035D80013F012FFF2E700BFB8180020742B002088
:1035E80004190020900C00201007002010B5044694
:1035F800054B1B689847A0602146044815F00DFC50
:10360800FFF7B4FF10BD00BF68020020C4180020F7
:103618002DE9F04100210846FFF700FE804640B141
:1036280040F26766002713F0B5FCFFF74FFE002550
:1036380015E04FF0FF364FF0FF37F4E74046FFF74D
:10364800BBFD804670B94FF0FF364FF0FF3709E0F9
:103658002C4632463B46094812F0CCFE2546B8F1C6
:10366800000FEBD1FFF730FF04460028F6D1002DFC
:10367800EED000210846FFF781FDEAE71007002099
:10368800054B064A9B1AB1EBD30F02D252F8310010
:1036980070470020704700BF08060200F8040200C7
:1036A80008B5074BC31A1B110133426813714368ED
:1036B8001960436801225A71FFF766FE08BD00BF12
:1036C800080602002DE9F0478AB005461E460F4657
:1036D800C1F34924002C35D0904600220792089265
:1036E80009920423029305AB01930223009307ABCD
:1036F80021464046FEF7C8FCC0F3090969F3522782
:10370800C7F3CB404844173020F007008008FFF784
:10371800B9FE824600B300F110030793CDF820905C
:103728000022099263B1114A0423029305AB019365
:103738000223009307AB21464046FEF7A5FC0BE0A9
:103748000022F1E7C1F3CB410C44173424F00704FD
:10375800A008FFF797FE824633463A462946504668
:1037680015F0DDFC0AB0BDE8F08700BFFB90010052
:103778000EB400B584B0014605AB53F8042B03938F
:10378800002000900348FFF75FF804B05DF804EBF1
:1037980003B070478D92010030B585B011F0440F29
:1037A80005D01A4B1C6834B9002005B030BD184943
:1037B800FFF7DEFFF9E7174B1968B2FBF1F1B1FB30
:1037C800F4FC154AA2FB0C32D20A4FF4616E0EFBD0
:1037D80012CE124BA3FB0E535B0904FB1C114FF4D2
:1037E8007A7C0CFB01F1B1FBF4F505FB14110CFB21
:1037F80001F1B1FBF4F102910195C3EB0311AEEBBA
:10380800810100910649FFF7B3FFCEE708190020B0
:10381800DC0A02000C190020C5B3A29189888888A7
:10382800E80A020061B108B52AB1064A52F8232015
:1038380012B9054A00E0044A0449FFF799FF08BD98
:10384800704700BF5C0B0200040B02001C1702004B
:103858002DE9F041054617461E46DDF8188099B94E
:1038680000242EB1324612492846FFF781FF04444E
:10387800B8F1000F17D087B10123079A934013F0CE
:10388800100F13D10B4909E00B4B079A53F822206C
:103898000A49FFF76DFF0446E3E706494246284612
:1038A800FFF766FF04442046BDE8F0810449F5E7C8
:1038B800200B02000C0B0200980B0200180B0200F0
:1038C800140B02002DE9F04F85B005460C4616464C
:1038D80003939DF8408001F0020B01F0010AC1F347
:1038E800C00915F004FCD8B1024612492846FFF772
:1038F8003FFF0746BBF1000F14D142465146284608
:1039080015F080FCCDF804800F9B00930E9B324687
:1039180049462846FFF79CFF384405B0BDE8F08FBC
:103928000027E7E7039A21462846FFF735FF0744B3
:10393800E3E700BF240B020011F0100F0BD108B50C
:1039480011F0200F03D00449FFF712FF08BD034907
:10395800FFF70EFFFAE7704728140200D03A02007A
:103968002DE9F04105460F46164698460699FFF799
:10397800E3FF0024444505DA23492846FFF7F8FE0B
:103988000134F7E7002409E01F492846FFF7F0FE55
:103998000BE01E492846FFF7EBFE01340F2C0CDC28
:1039A800002C02DD14F0070FEED0B442F1D23A5DDC
:1039B80017492846FFF7DCFEEFE716492846FFF7C8
:1039C800D7FE002409E010492846FFF7D1FE0BE096
:1039D80011492846FFF7CCFE01340F2C12DC002CCD
:1039E80002DD14F0070FEED0B44206D23A5DA2F120
:1039F80020035E2BECD92E22EAE703492846FFF77D
:103A0800B7FEE9E7BDE8F0811C0B0200300B0200AD
:103A1800280B0200340B0200380B02002DE9F0419C
:103A280084B004469DF828500B9F0D9E8DB94FF029
:103A3800000837B1BDB914483B462246134914F073
:103A48000EFA96B9D5B9204615F00FFC04B0BDE8BA
:103A5800F0810295019300920B4600220E99FFF720
:103A680031FF8046E5E70A48E6E70E9B00934346A8
:103A780032460C99204615F0DDFBE3E72A460E99FD
:103A8800204615F0CBFBDEE7BD920100FD91010059
:103A98008D9201002DE9F04387B006460C4690460A
:103AA800D1F808900F88C7F382174B680878C0F3DD
:103AB800C20033B11149591A41F3CF01002919DA6B
:103AC8000023214651F8105BC5F349256288C2F3EB
:103AD800CB02481905B90021CDF810800392029055
:103AE80001910097002249463046FFF797FF07B03B
:103AF800BDE8F083FFF7C4FD0346E2E7F8040200DF
:103B080070B582B00446056842F20F738B4228BF35
:103B18000B460E4A0521684614F034FA06466368D7
:103B28005B680B220A49284615F057FB63685B68F7
:103B380032466946284615F050FB63685B681B22CD
:103B48000449284615F049FB02B070BDB8240200AC
:103B58008C0B0200700B0200074B01221A6004E074
:103B68004008054A13685B001360044B9842F7D875
:103B7800034B1860704700BF0C19002040420F002B
:103B88000819002070B506460D46002406E0054BCE
:103B98001868315D83685B6898470134AC42F6D396
:103BA800284670BD28190020014B19600020704775
:103BB80018190020014B024A1A6070472819002082
:103BC8001C01020008B5034B01221A70024815F0C7
:103BD8004CFB08BD752B0020E80B020008B5024815
:103BE800FFF78EFF08BD00BFE80B020010B50C46BA
:103BF800044B1868FFF7B4FB03460F22214602481E
:103C0800984710BD18190020E80B0200034B012249
:103C18001A70034B034A1A60704700BF762B0020C6
:103C28006019002048190020014B196000207047D6
:103C38006419002008B518B9084B00221A7008BD8D
:103C4800074B1B7823B141F288301CF0A8F8F6E73F
:103C5800A420002113F072F9F1E700BF762B0020B1
:103C6800772B002038B504460A4B01221A700A4BFC
:103C78001B782BB938BD651E2046FFF7DBFF2C46A5
:103C8800002011F095FE0028F4D0024B1B78002B81
:103C9800F1D1EFE7762B0020772B0020F8B5064608
:103CA8000D4604270DE02A463146002011F0E6FDB6
:103CB800044614E03846FFF7D5FFDCB9114B1B78F2
:103CC800C3B1114B1B78002BEDD111F081FE2A46B0
:103CD8003146002011F0D2FD044611F085FE002C7B
:103CE800E8D1084B1B78002BE7D0013F3846FFF797
:103CF800A1FFE2E714B9034B1B7803B92C46204611
:103D0800F8BD00BF762B0020772B002008B5034BA9
:103D180001221A70024815F0A8FA08BD772B002076
:103D2800240C020008B50248FFF7EAFE08BD00BFF0
:103D3800240C020010B50C46044B1868FFF710FB62
:103D480003460F2221460248984710BD64190020F7
:103D5800240C020000B58FB040B1836873B31B68B0
:103D6800002B53D098470FB05DF804FB284B0D93F8
:103D780002238DF8043000238DF805308DF80630C5
:103D88008DF80730019A0C92194663F3000163F32A
:103D9800410163F3820163F3C501012262F38811D3
:103DA800082262F3522163F3DE4163F3DF710CAA48
:103DB8001848FFF787FC6FF01500D4E7164B0793F8
:103DC80002238DF8043000238DF805308DF8063075
:103DD8008DF80730019A0692194663F3000163F3E0
:103DE800410163F3820163F3C501012262F3881183
:103DF800082262F3522163F3DE4163F3DF7106AAFE
:103E08000448FFF75FFC6FF00400ACE70020AAE766
:103E1800340C020090050200480C020010B58EB068
:103E280068B1034659B152B1806880B3846874B3ED
:103E380041F8043B84681846A0470EB010BD284BD3
:103E48000D9302238DF8043000238DF805308DF88A
:103E580006308DF80730019A0C92194663F3000179
:103E680063F3410163F3820163F3C501012262F345
:103E78008811082262F3522163F3DE4163F3DF7194
:103E88000CAA1848FFF71EFC6FF01500D5E7164B73
:103E9800079302238DF8043000238DF805308DF840
:103EA80006308DF80730019A0692194663F300012F
:103EB80063F3410163F3820163F3C501012262F3F5
:103EC8008811082262F3522163F3DE4163F3DF7144
:103ED80006AA0448FFF7F6FB6FF00400ADE700BF41
:103EE800680C020090050200480C020010B594B05E
:103EF80080B1134684460068002833D08268002ABF
:103F080058D05468002C55D00A46DCF80410A04755
:103F180014B010BD3B4B139302238DF804300023DB
:103F28008DF805308DF806308DF80730019A129219
:103F3800194663F3000163F3410163F3820163F3FC
:103F4800C501012262F38811082262F3522163F34A
:103F5800DE4163F3DF7112AA2B48FFF7B3FB6FF062
:103F68001500D5E7294B0D9302238DF80430002363
:103F78008DF805308DF806308DF80730019A0C92CF
:103F8800194663F3000163F3410163F3820163F3AC
:103F9800C501012262F38811082262F3522163F3FA
:103FA800DE4163F3DF710CAA1748FFF78BFB6FF054
:103FB8000100ADE7164B079302238DF80430002368
:103FC8008DF805308DF806308DF80730019A069285
:103FD800194663F3000163F3410163F3820163F35C
:103FE800C501012262F38811082262F3522163F3AA
:103FF800DE4163F3DF7106AA0348FFF763FB6FF046
:10400800040085E7940C020090050200A80C020049
:10401800480C020008B5024915F0ECF908BD00BFCC
:10402800700A020030B585B004460D460B4902916E
:10403800D0F89811019100934FF0FF3300F1E0019F
:10404800284611F005FA38B9012385F86430D4F808
:1040580094310BB12846984705B030BD55940100FE
:1040680010B582B004460123019300230093064B48
:10407800826A416A11F08AF9A36E1B680BB1E06E7F
:10408800984702B010BD00BF700A0200F0B583B0B7
:1040980044680569E369012B23D0276A05F52A7668
:1040A80030461BF0ADFB606A002300933B464FF49B
:1040B8008062144901EB8021304612F043FB12491B
:1040C80005F526701BF06EFB04F114076069836820
:1040D8005E684EB12B460D4A7968B04738B103B0D7
:1040E800F0BD276A103FD9E76FF05700F6E760691F
:1040F80083681B691BB1012279689847EFE76FF065
:104108005700ECE7802E0020AB9601009B9601003B
:104118002DE9F04385B004464668056905F56179DF
:104128000123D9E8EF2F002A03D1C9E8E13F00298C
:10413800F7D152D105F5D8783146404615F056FAF0
:10414800074650B10023D9E8EF2FC9E8E13F00291D
:10415800F9D1384605B0BDE8F083214BC5F8903257
:10416800C5F88C623168404600F0A2F9074600287D
:10417800E8D12046FFF78AFF07460028E2D1194B0D
:10418800C5F89431184BC5F89831D5F85032B26A51
:10419800D5F8801315480390D5F8F8010290D5F8A2
:1041A800F0010190CDF80080284600F0CBF80746D2
:1041B8000028C7D105F1E00011F000FAC5F888031E
:1041C800002807DB0223D9E8EF2FC9E8E13F0029DF
:1041D800BFD0F8E76FF01507B4E76FF07707B8E7D7
:1041E800D992010069400000C7950100CF940100F1
:1041F80010B58CB00DF1040C0D4C0FCCACE80F00D1
:104208000FCCACE80F0094E807008CE8070001AC7D
:104218000CAB9C4202D300200CB010BD23680BB13C
:104228002C34F5E704220021606815F039FFF7E720
:104238008406020010B582B00C46016901F561716F
:10424800D1E8AF1F02290FD18BB19CB10121019197
:1042580000931346A26A616A204611F097F8084B4A
:1042680098420AD002B010BD6FF00F00FAE76FF065
:104278004C00F7E76FF00100F4E76FF00B00F1E78F
:104288002EF8FFFF2DE9F04385B007460E4691460C
:10429800D0F8A480002400E00134012C28D8A8F527
:1042A800C471C4EBC40501EB0515C4EBC4031B01C1
:1042B80040331944304615F094FE0028ECD10E4BDB
:1042C8000293D8F810300193CDF800904FF0FF33E7
:1042D80032463946284611F0BBF848B9012185F81D
:1042E8006410D8F80C30002BD6D028469847D3E76E
:1042F80005B0BDE8F08300BFF1960100C8B110B564
:1043080084B014460346BAB1E030012902D0002037
:1043180004B010BD0A4A0292D3F8983101934FF0C5
:10432800FF33009304F140020146204611F090F853
:10433800EEE76FF0150070476FF01500E8E700BF73
:10434800F19601002DE9F04184B00B9D0D9C38B326
:104358001F4606463DB3BCB1C1B90292039206F5A9
:10436800C4780C9A294640461AF00EFF02AB019316
:10437800CDF800803B4622460A9906F1E00011F08C
:1043880037F904B0BDE8F081084CE5E70023009355
:104398003B4622460A9906F1E00011F02BFAF0E7B5
:1043A8006FF01500EDE76FF01500EAE78D420000A9
:1043B80010B584B00446114A02AB92E8030083E8C2
:1043C8000300184610F000FF08B104B010BD04F156
:1043D800340010F0D9FE0028F7D101AA084909488D
:1043E8001AF08CF80028F0D1019B9A681AB10C33A6
:1043F800C4F8A030E9E70023FAE700BFB0060200DE
:10440800FC0C0200080D0200F8B504460E46D0F870
:104418009450ED00343528461BF0D8FD074618B1F6
:104428002A46002115F03CFEC4F8D470C7B3D4F86E
:104438009450ED00343528461BF0C8FD074618B1E6
:104448002A46002115F02CFEC4F8D8705FB3D4F8C2
:10445800A010C4F8B810D4F88C30C4F8A830B4F858
:104468009420A4F8B0200423C4F8AC30D4F8D400C5
:10447800C4F8A400C4F8D010D4F89010C4F8C01040
:10448800A4F8C820C4F8C430C4F8BC70A6610223DC
:10449800A362064B236204F1A403E3620020F8BD83
:1044A8006FF00B00FBE76FF00B00F8E7100D020050
:1044B80010B330B585B00D460446114B4363012354
:1044C800C363D0F8981001630023029301934FF05F
:1044D800FF330093D0F89C3000F1300240301AF0DE
:1044E80032F82046FFF764FF08B105B030BD294611
:1044F8002046FFF789FFF8E76FF01500704700BF07
:10450800FC0C020070B5284B1D7D05F01F0301222D
:104518009A406909254B03EB8103D043D3E8EF1F89
:1045280001EA0004C3E8E64F002EF7D10A4200D1A1
:1045380070BD1F4805EB45029300C1181D4A72B1B2
:104548004978C05C14F085FD4FF02003EFF3118625
:1045580083F31288BFF36F8F174B1C6810E000239A
:1045680083F31188BFF36F8FEEE70F4B1B7D03EBCF
:10457800430399000E4B585C90470CB1246824B152
:104588001CB1A268002AF0D1F7E786F31188BFF3BF
:104598006F8F074805EB4505AA0081180023835053
:1045A8004B608B60C4E700BF4C29002094190020A1
:1045B800881900205B90010074190020F8B50446A2
:1045C8004B4B1D7D4FF02003EFF3118683F31288C8
:1045D800BFF36F8F05EB4502464B13F822304BB300
:1045E800454B03EB820C434F4FEA820E07EB8203E5
:1045F80093E807008CE80700002307F80E3086F3DD
:104608001188BFF36F8F05EB45033B4A12F823303F
:10461800002B6AD0B4F1FF3F1BD112F05BF94FF0C9
:104628002003EFF3118683F31288BFF36F8F334BA8
:104638001C682EE00146284600F06AF80028DED003
:1046480005EB45032C4A02EB830307C883E8070000
:10465800D5E705EB450302EB83039868410CC003DB
:10466800274BC018274A4FF0000341F10001FCF71F
:104678003DF80121201A1BF05FFBCEE71C4B1B7D88
:1046880003EB43031C4911F8230090470CB124683D
:1046980024B11CB16268002AF0D1F7E786F31188CB
:1046A800BFF36F8F05F01F03012199406B09164A6C
:1046B80002EB8303D3E8EF2F0A43C3E8E02F002877
:1046C800F8D1124B5BB10C4A05EB450302EB8303AF
:1046D80005EB4505597812F82500FEF719FCFFF798
:1046E80011FF12F019FB0120F8BD0020FCE700BF04
:1046F8004C2900207C1900208819002074190020FA
:104708003F420F0040420F0094190020192F00006B
:104718002DE9F04182B00E4601A900F045F8441E8B
:1047280024B207E0B6F1FF3F33D04044B04230D95D
:10473800013C24B2002C2BDB019B04EB440203EB6D
:104748008205697813F8220014F0EEFF0028EFD1F3
:104758006868410CC003114FC019114A4FF000039B
:1047680041F10001FBF7C2FF8046AB68590CDB033F
:10477800D8190B4A4FF0000341F10001FBF7B6FFCF
:10478800084B1B68B3F1FF3FCCD08342CAD8CFE7B0
:104798000025284602B0BDE8F08100BF3F420F0067
:1047A80040420F009802002008B9024B0B6000201D
:1047B800704700BF380D020070B48DB006460D4634
:1047C8000DF1040C2B4C0FCCACE80F000FCCACE86F
:1047D8000F0094E807008CE80700002E45D030460B
:1047E800002D44D000230FE015F8234005EB83018A
:1047F8004A78120442EA04628C7842EA0422C978B0
:104808000A4340F823200133032BEDD906E0191F92
:1048180050F821104A4040F8232001332B2B20D890
:104828005A1E50F8222013F0030FF0D14FEA3262DB
:10483800110E114C655CC2F30741615C090441EA41
:104848000561C2F30725655D41EA0521D2B2A25C84
:10485800114323F003020CAC224452F82C2C4A409A
:10486800D5E701200DB070BC70470020FAE70020A2
:10487800F8E700BFB8060200380D0200002800F073
:104888006683F0B589B015460646002900F06183B5
:10489800002A00F0608310230A4619460DEB030036
:1048A80014F044FF2B689DF8102082EA13628DF8FB
:1048B8001020C3F307429DF811104A408DF81120CB
:1048C800C3F307229DF812104A408DF81220DBB27C
:1048D8009DF8132053408DF813306B689DF8142011
:1048E80082EA13628DF81420C3F307429DF815106D
:1048F8004A408DF81520C3F307229DF816104A4048
:104908008DF81620DBB29DF8172053408DF817302C
:10491800AB689DF8182082EA13628DF81820C3F35B
:1049280007429DF819104A408DF81920C3F3072251
:104938009DF81A104A408DF81A20DBB29DF81B200A
:1049480053408DF81B30EB689DF81C2082EA1362F7
:104958008DF81C20C3F307429DF81D104A408DF8BE
:104968001D20C3F307229DF81E104A408DF81E2013
:10497800DBB29DF81F2053408DF81F30002411E250
:1049880004A9C85C024A105CC854013302E000BFA5
:10499800380D02000F2BF3D99DF810308DF8003038
:1049A8009DF815308DF801309DF81A308DF80230D9
:1049B8009DF81F308DF803309DF814308DF80430C1
:1049C8009DF819308DF805309DF81E308DF80630A9
:1049D8009DF813308DF807309DF818308DF80830A1
:1049E8009DF81D308DF809309DF812308DF80A3089
:1049F8009DF817308DF80B309DF81C308DF80C3071
:104A08009DF811308DF80D309DF816308DF80E3068
:104A18009DF81B308DF80F3010236A4619460DEBB0
:104A2800030014F083FE9DF8100014F090FE074672
:104A38009DF8110014F08BFE01469DF811009DF8B9
:104A480012209DF8133041404F407A4053408DF872
:104A580000309DF8107014F07AFE4740FFB29DF8C0
:104A6800120014F074FE02469DF812009DF81330EF
:104A7800424057405F408DF801709DF810709DF8D6
:104A880011305F4014F063FE4740FFB29DF81300F9
:104A980014F05DFE9DF81330584047408DF80270C1
:104AA8009DF8100014F053FE9DF810209DF8113069
:104AB8009DF81270504043405F40FFB29DF81300CC
:104AC80014F045FE47408DF803709DF8140014F06B
:104AD8003EFE07469DF8150014F039FE01469DF884
:104AE80015009DF816209DF8173041404F407A4038
:104AF80053408DF804309DF8147014F028FE474098
:104B0800FFB29DF8160014F022FE02469DF816002A
:104B18009DF81730424057405F408DF805709DF86A
:104B280014709DF815305F4014F011FE4740FFB235
:104B38009DF8170014F00BFE9DF8173058404740B9
:104B48008DF806709DF8140014F001FE9DF81420ED
:104B58009DF815309DF81670504043405F40FFB2F5
:104B68009DF8170014F0F3FD47408DF807709DF885
:104B7800180014F0ECFD07469DF8190014F0E7FD45
:104B880001469DF819009DF81A209DF81B304140F8
:104B98004F407A4053408DF808309DF8187014F053
:104BA800D6FD4740FFB29DF81A0014F0D0FD02462A
:104BB8009DF81A009DF81B30424057405F408DF821
:104BC80009709DF818709DF819305F4014F0BFFD0A
:104BD8004740FFB29DF81B0014F0B9FD9DF81B304B
:104BE800584047408DF80A709DF8180014F0AFFD42
:104BF8009DF818209DF819309DF81A7050404340D0
:104C08005F40FFB29DF81B0014F0A1FD47408DF8EE
:104C18000B709DF81C0014F09AFD07469DF81D00C6
:104C280014F095FD01469DF81D009DF81E209DF885
:104C38001F3041404F407A4053408DF80C309DF86A
:104C48001C7014F084FD4740FFB29DF81E0014F05C
:104C58007EFD02469DF81E009DF81F3042405740D9
:104C68005F408DF80D709DF81C709DF81D305F40F9
:104C780014F06DFD4740FFB29DF81F0014F067FD6A
:104C88009DF81F30584047408DF80E709DF81C0065
:104C980014F05DFD9DF81C209DF81D309DF81E70D8
:104CA800504043405F40FFB29DF81F0014F04FFD95
:104CB80047408DF80F7010236A4619460DEB030024
:104CC80014F034FD0134230105EB0412EB589DF870
:104CD800101081EA13618DF81010C3F307419DF895
:104CE800110041408DF81110C3F307219DF81200FF
:104CF80041408DF81210DBB29DF813104B408DF82F
:104D0800133053689DF8141081EA13618DF814105C
:104D1800C3F307419DF8150041408DF81510C3F302
:104D280007219DF8160041408DF81610DBB29DF85A
:104D380017104B408DF8173093689DF8181081EACA
:104D480013618DF81810C3F307419DF8190041400D
:104D58008DF81910C3F307219DF81A0041408DF80A
:104D68001A10DBB29DF81B104B408DF81B30D3682E
:104D78009DF81C2082EA13628DF81C20C3F30742B9
:104D88009DF81D104A408DF81D20C3F307229DF899
:104D98001E104A408DF81E20DBB29DF81F2053409C
:104DA8008DF81F30082C01D80023F3E5002305E017
:104DB80004AAD15C6948415CD15401330F2BF7D95F
:104DC8009DF810308DF800309DF815308DF80130C1
:104DD8009DF81A308DF802309DF81F308DF8033099
:104DE8009DF814308DF804309DF819308DF8053091
:104DF8009DF81E308DF806309DF813308DF8073079
:104E08009DF818308DF808309DF81D308DF8093060
:104E18009DF812308DF80A309DF817308DF80B3058
:104E28009DF81C308DF80C309DF811308DF80D3040
:104E38009DF816308DF80E309DF81B308DF80F3028
:104E480010236A4619460DEB030014F06FFC631C2F
:104E58001A0105EB0313AA589DF8101081EA126194
:104E68008DF81010C2F307419DF8110041408DF8EC
:104E78001110C2F307219DF8120041408DF812105D
:104E8800D2B29DF813104A408DF813205A689DF845
:104E9800141081EA12618DF81410C2F307419DF8CD
:104EA800150041408DF81510C2F307219DF8160032
:104EB80041408DF81610D2B29DF817104A408DF86F
:104EC80017209A689DF8181081EA12618DF8181059
:104ED800C2F307419DF8190041408DF81910C2F33B
:104EE80007219DF81A0041408DF81A10D2B29DF89A
:104EF8001B104A408DF81B20DB689DF81C2082EAB5
:104F080013628DF81C20C3F307429DF81D104A4018
:104F18008DF81D20C3F307229DF81E104A408DF816
:104F28001E20DBB29DF81F2053408DF81F30102340
:104F38000DEB03021946304614F0F8FB102200214D
:104F48000DEB020014F0FFFB012009B0F0BD0020BA
:104F580070470020F9E70020F7E700BF380D02008E
:104F68002DE9F04F93B08A46D0F800E04568846890
:104F7800D0F80CC0026947698669C1694FF000081A
:104F880046E0D14619F801BB9AF801301B0443EA00
:104F98000B6399F801A043EA0A2309F1030A99F877
:104FA800029043EA09030DF1480909EB880949F819
:104FB800403C4FEAF22989EAB21989EA7269494400
:104FC80002EA070926EA020B89EA0B094944DFF8D5
:104FD8004C9159F8289049440B444FEA7E3181EAB4
:104FE800BE0181EABE5185EA040909EA0E0905EA0B
:104FF800040B89EA0B09894408F1010831463E4649
:1050080017460CEB0302A4462C46754603EB090E23
:10501800B8F10F0FB5D9B8F13F0F63D808F10109FE
:1050280009F00F030DF1480A0AEB830353F8403CDB
:105038004FEAB34B8BEAF31B8BEAD30B08F10E0351
:1050480003F00F030AEB830353F840AC4FEAFA432B
:1050580083EA7A4383EA9A2308F00F0A5B440193B0
:1050680008F1090B0BF00F0B12AB03EB8B0B5BF882
:1050780040BC019B9B4412AB03EB8A0A5AF8403CA4
:105088005B444AF8403C4FEAF22A8AEAB21A8AEAB2
:10509800726A514402EA070A26EA020B8AEA0B0AF4
:1050A8005144DFF878A05AF8288041440B444FEA6D
:1050B8007E3A8AEABE0A8AEABE5A85EA040101EA09
:1050C8000E0105EA040881EA08018A44C846314607
:1050D8003E4617460CEB0302A4462C46754603EBE6
:1050E8000A0E98E703687344036043682B444360DF
:1050F800836823448360C3686344C36003691344BB
:10510800036143693B444361836933448361C369F1
:105118000B44C36113B0BDE8F08F00BF380E020026
:10512800E0B110B504467022002114F00CFB0C4BC2
:1051380023600C4B63600C4BA3600C4BE3600C4B7F
:1051480023610C4B63610C4BA36103F17453A3F50A
:105158002303A3F69243E361012010BD00207047AA
:1051680067E6096A85AE67BB72F36E3C3AF54FA5F0
:105178007F520E518C68059BABD9831F08B5024836
:1051880012F0E4FC08BD00BF380F020008B308B5F0
:105198004368042B07D0082B12D0FBB1006811F02C
:1051A80089F8002014E003680022D3E8EF1F0129E2
:1051B80003D1C3E8E02F0028F7D10DD1104607E04E
:1051C80003681B7803F580730020054A42F8230022
:1051D80008BD6FF4E04070470248F9E70248F7E776
:1051E80000000350E98FFFFFEA8FFFFF70B308B597
:1051F8004368042B04D0082B0FD0C3B915480BE023
:1052080003680122D3E8EF1F002903D1C3E8E02F88
:105218000028F7D116D1002008BD03681B7803F5D4
:1052280080730D4A52F8233073B90020F4E7006800
:105238004FF0FF324FF0FF3310F0B2FF0028EBD0F1
:105248000648E9E70548E7E70448E5E76FF4E04082
:10525800704700BFEA8FFFFF00000350E98FFFFF90
:1052680010B5044688B16368042B0DD0082B0BD009
:1052780053B113F0020F0DD0214609481AF097F8E0
:10528800002323600023636010BD064B5B6806485B
:105298009847E8E714220021206814F001FFF1E79D
:1052A8009819002098050020400F020010B5044608
:1052B80078B16368042B0BD0082B09D00BB923688D
:1052C80063B120681AF000F9636843F00103636072
:1052D80010BD0F4B5B680F489847EAE74FF0FF3265
:1052E8004FF0FF3321460C4810F01AFE08B9236826
:1052F8001BB9074B5B6809489847142200212068AE
:1053080014F0CEFE636843F002036360D9E700BF80
:1053180098050020400F020098190020680F02002D
:1053280008B540231422044904481AF032F8044905
:10533800044812F06DFC08BDB4190020981900202B
:10534800A80F0200980F0200014910220A60704756
:1053580010ED00E072B6404080F31188BFF36F8F04
:10536800BFF34F8F30BF62B6BFF36F8F704700BF78
:1053780072B6494081F3118820BF80F3118862B664
:10538800704700BFF0B583B000AF0446D0F800C046
:10539800456880686E468AB06B4613F1100200F0CB
:1053A800F08014212AB1042903DDDFF808E2C3F8EC
:1053B80014E01AB1082901DDC3F818C012B10C298C
:1053C80000DDDD6112B1102900DD1862132940F3F8
:1053D800DB8014253AB10521397100217971B97141
:1053E800F9717868186100216FF300016FF34101CA
:1053F8006FF382016FF3C501012363F3881105F48C
:105408007D7565F352216FF3DE416FF3DF71002381
:105418006948FEF757F9B546D4F80CC026696069A3
:105428006D468AB06B4613F1100200F0B08014216B
:105438002AB1042903DDDFF884E1C3F814E01AB1C6
:10544800082901DDC3F818C012B10C2900DDDE619E
:1054580012B1102900DD1862132940F39B804FF028
:10546800140C3AB10521397100217971B971F971BA
:105478007868186100216FF300016FF341016FF341
:1054880082016FF3C501012363F388110CF47D7C5D
:105498006CF352216FF3DE416FF3DF71002346484E
:1054A800FEF710F9AD46E0696D4688B06B4613F11A
:1054B800100272D00C211AB1042901DD404E5E6140
:1054C80012B1082900DD98610B2969DD4FF00C0C39
:1054D8003AB10321397100217971B971F97178688C
:1054E800186100216FF300016FF341016FF382012E
:1054F8006FF3C501012363F388110CF47B7C6CF313
:1055080052216FF3DE416FF3DF7100232A48FEF763
:10551800D9F8AD46A06988B06B4613F1100242D0A5
:105528000C211AB1042901DD264C5C6112B108294D
:1055380000DD98610B2939DD0C243AB1032139715A
:1055480000217971B971F9717868186100216FF3D8
:1055580000016FF341016FF382016FF3C50101236D
:1055680063F3881104F47B7464F352216FF3DE4112
:105578006FF3DF7100231048FEF7A4F80C37BD461F
:10558800F0BD6FF000410DE76FF01B0522E76FF0EB
:1055980000414DE76FF01B0C63E76FF000418AE7AD
:1055A8006FF01B0C94E76FF00041BAE76FF01B0433
:1055B800C3E700BFBC0F0200C0050200EC0F0200E9
:1055C8001C1002002C10020040B2002807DB00F07B
:1055D8001F02400901239340014A42F820307047D6
:1055E80000E100E040B200280CDB00F01F02400997
:1055F800012393402030044A42F82030BFF34F8FF4
:10560800BFF36F8F704700BF00E100E04209054B10
:1056180053F8222000F01F00012303FA00F0104085
:10562800704700BF00E100E0013140B2002808DB0C
:105638004901C9B200F1604000F5614080F80013EB
:10564800704700F00F004901C9B2014B1954704767
:1056580014ED00E030BFFFF7FDBF00BF08B50B4BEE
:105668000B4A22F07F029A60BFF34F8FBFF36F8F10
:10567800D3F8882022F47002C3F8882010F088FB41
:1056880011F0DAFC00F082FF10F0DEFB00ED00E024
:10569800000000000A4A9368C3F8AC000949096889
:1056A800C3F8B01008494B6843F080534B6000239F
:1056B80083F31188BFF36F8F9368D3F8B0007047F6
:1056C8004C2900204839020000ED00E014498A689E
:1056D8004FF030001044EFF3098C80E8F01F2020D1
:1056E80080F31288BFF36F8F0E4F4FF00066CA69C0
:1056F8008A603E60D2F8AC000023C2F8AC3080F378
:10570800118802F1300090E8F01F8CF3098802F14B
:10571800000004B514F0ABFBBDE80440704700007E
:105728004C29002004ED00E01EF0040F0CBFEFF33D
:105738000880EFF30980816911F8021C0229FFD063
:1057480001B514F082FB01BD10B4A2F120040E498A
:1057580042F8081C21F0010142F8081C42F8203CDC
:10576800019B42F81C3C029B42F8183C039B42F800
:10577800143C4FF0807342F8043C04650023C0F8E1
:10578800AC3010BC704700BFB3820100094B986071
:10579800D0F89C3083F30B88104681F309880021E8
:1057A80063B681F31188BFF36F8F0022002312F0D4
:1057B8007CFD00BF4C29002001B572B60B4A9069E8
:1057C80000281EBF0021916119F062FE62B6EFF356
:1057D8000580A0F110004FEAC0000549014409C93D
:1057E8009847BDE801400349084700004C290020BC
:1057F8000C02020001580000044B9968D8698842DD
:1058080003D003494FF080520A6070474C290020AA
:1058180004ED00E02DE9F041A6B000AF05460E46C4
:105828001446AD4BFB6102233B7100237B71BB71B6
:10583800FB717A68BA61194663F3000163F34101A9
:1058480063F3820163F3C501012262F38811082220
:1058580062F3522163F3DE4163F3DF7107F118024B
:105868009E48FDF72FFF9E4B9B6A13F0100F35D112
:105878009B4B9B6A13F0080F53D1994B9B6A13F00B
:10588800020F71D1964B9B6A13F0010F40F0DC8038
:10589800934B9B6A13F0200F40F0F980904B9B6A62
:1058A80013F0100F01D18E4B9B6A8D4B9B6A13F03E
:1058B800200F04D08A4A536A23F400535362884A5B
:1058C800936A43F0FF0393620121284614F0D4FA47
:1058D800207000209837BD46BDE8F081814B7B637E
:1058E80002233B7100237B71BB71FB717A683A63B9
:1058F800194663F3000163F3410163F3820163F323
:10590800C501012262F38811082262F3522163F370
:10591800DE4163F3DF7107F130027048FDF7D2FE14
:10592800A6E7714BFB6402233B7100237B71BB71BB
:10593800FB717A68BA64194663F3000163F34101A5
:1059480063F3820163F3C501012262F3881108221F
:1059580062F3522163F3DE4163F3DF7107F148021A
:105968005E48FDF7AFFE88E7604B7B6602233B711C
:1059780000237B71BB71FB717A683A66194663F341
:10598800000163F3410163F3820163F3C50101225E
:1059980062F38811082262F3522163F3DE4163F354
:1059A800DF7107F160024D48FDF78CFE4C4B586BD8
:1059B8009B6A13F0800F3FF465AFE84688B06B46EA
:1059C80013F110023AD00C212AB1042903DDDFF8C3
:1059D80020C1C3F814C012B1082900DD98610B2951
:1059E8002FDD4FF00C0C3AB1032139710021797188
:1059F800B971F9717868186100216FF300016FF3CC
:105A080041016FF382016FF3C501012363F388112C
:105A18000CF47B7363F352216FF3DE416FF3DF7194
:105A280000232E48FDF74EFEC546002E3FF42AAF50
:105A38002B4A936A23F08003936223E76FF00041B7
:105A4800C2E76FF01B0CCEE72A4BFB6702233B71C2
:105A580000237B71BB71FB717A68BA67194663F3DF
:105A6800000163F3410163F3820163F3C50101227D
:105A780062F38811082262F3522163F3DE4163F373
:105A8800DF7107F178021548FDF71CFE00E71A4B95
:105A9800C7F8943002233B7100237B71BB71FB7103
:105AA8007A68C7F89020194663F3000163F341014F
:105AB80063F3820163F3C501012262F388110822AE
:105AC80062F3522163F3DE4163F3DF7107F1900261
