:020000040000FA
:10000000B8420020FD4F000051750100B54F0000BF
:10001000B54F0000B54F0000B54F0000B54F0000D0
:10002000000000000000000000000000654100002A
:10003000B54F00000000000009410000B54F00006E
:10004000F5410000F5410000F5410000F5410000D8
:10005000F5410000F5410000F5410000F5410000C8
:10006000F5410000F5410000F5410000F5410000B8
:10007000F5410000F5410000F5410000F5410000A8
:10008000F5410000F5410000F5410000F541000098
:10009000F5410000F5410000F5410000F541000088
:1000A000F5410000F5410000F5410000F541000078
:1000B000F5410000F5410000F5410000F541000068
:1000C000F5410000F5410000F5410000F541000058
:1000D000F5410000F5410000F5410000F541000048
:1000E000F5410000F5410000F5410000F541000038
:1000F000F5410000F5410000F5410000F541000028
:10010000F5410000F5410000F5410000F541000017
:10011000F5410000F5410000F5410000F541000007
:10012000F5410000F5410000F5410000F5410000F7
:10013000F5410000F5410000F5410000F5410000E7
:10014000F5410000F5410000F5410000F5410000D7
:10015000F541000053B94AB9002908BF00281CBF67
:100160004FF0FF314FF0FF3000F00CB8ADF1080C4C
:100170006DE904CE00F008F8DDF804E0DDE90223C3
:1001800004B07047704700BF2DE9F04F07468C461A
:100190000846099E15463C461946002B40F0C5808E
:1001A0008242B2FA82F746D94FB1C7F1200E00FA67
:1001B00007F3BD4024FA0EFEBC404EEA030C4FEAA2
:1001C00015481FFA85FE220CBCFBF8F908FB19C381
:1001D00009FB0EFA42EA03439A4528D9EB1809F1C4
:1001E000FF3004D29A4502D9A9F102002B44A3EBB7
:1001F0000A03A4B2B3FBF8F208FB123302FB0EFEB3
:1002000044EA0344A64514D92C1902F1FF3303D262
:10021000A64501D9931E2C44A4EB0E0443EA0040EA
:100220001EB1FC40002334607360BDE8F08F484687
:10023000DDE71346F0E702B9FFDE87BB831A012131
:100240004FEA154EAAB2200CB3FBFEFC0EFB1C338A
:100250000CFB02F840EA0343984562D9EB180CF115
:10026000FF3004D2984502D9ACF102002B44A3EB35
:100270000803A4B2B3FBFEFC0EFB1C330CFB02F222
:1002800044EA0344A2424ED92C190CF1FF3304D2A4
:10029000A24202D9ACF102032C44A41ABEE7C7F172
:1002A000200CBD4000FA07F320FA0CF84FEA154E77
:1002B00024FA0CFCBC404CEA0302ABB2B8FBFEFCD7
:1002C000110C0EFB1C800CFB03F941EA0040814538
:1002D00023D928180CF1FF3104D2814502D9ACF1A1
:1002E00002012844A0EB090092B2B0FBFEFC0EFB19
:1002F0001C000CFB03F842EA004398450FD9EB18A9
:100300000CF1FF3204D2984502D9ACF102022B4421
:10031000A3EB080342EA014192E76146E2E7624645
:10032000F6E76046A3E76346B7E7834205D90EB117
:10033000C6E900700021084677E7B3FA83F181B976
:10034000834201D3BA420AD8BC1A60EB03030120EE
:100350009C46002E67D0C6E9004C002165E70846A0
:10036000F7E7C1F1200C8B4002FA01F522FA0CF4F8
:1003700020FA0CFB27FA0CF28F401C4300FA01F321
:100380004FEA144913431FFA84FE1A0CBBFBF9F819
:1003900009FB18BB08FB0EFA42EA0B4292453ED914
:1003A000A21808F1FF3004D2924502D9A8F1020048
:1003B0002244A2EB0A029BB2B2FBF9F809FB182215
:1003C00008FB0EFE43EA024296452AD9A21808F11C
:1003D000FF3304D2964502D9A8F10203224443EA2E
:1003E0000040A2EB0E02A0FB05939A42CE4698462F
:1003F00002D306D14F4504D20138B9EB050E63EBA9
:10040000040886B1B7EB0E0362EB080707FA0CFC91
:10041000CB40CF404CEA0303C6E900379DE7404696
:10042000C7E74346DBE73146FFE60000404B1B7859
:10043000002B7CD090B583B000AF3E4A137883F098
:1004400001031370002B5AD03B4802233B716C46CA
:1004500088B06B4613F1100253D04FF00D0C22B14F
:10046000BCF1040F01DD35495961022139701AB11F
:10047000BCF1080F00DD986122B103F11C010020DE
:10048000002841D0BCF10C0F47DD4FF00D0C42B1FC
:100490000321397100217971B9710121F9717868ED
:1004A000186100216FF300016FF341016FF38201C6
:1004B0006FF3C501032363F38811CCF3090C6CF3CC
:1004C00052216FF3DE416FF3DF7100231C4801F00E
:1004D000BBFEA546174B1B781A4A1269126812F424
:1004E000804F02D0B3FA83F35B09CBB11548836820
:1004F000DB684FF4804198470C37BD4690BD1248E9
:10050000A3E76FF0004CAAE707F1080E86441EF837
:1005100008EC01F801EB0130B2E76FF01B0CB6E715
:10052000084883681B694FF480419847E4E77047A7
:10053000F6280020F728002050EF0100FCD1010030
:100540004CD001002CCC0100F8D10100F0B583B0F3
:1005500000AF65481BF03BFC644B187088B16248E3
:1005600081680269136823F4804313600B684FF4B9
:10057000C0220E219847041E5BDB20460C37BD4687
:10058000F0BD594B186802233B716C468AB06B462C
:1005900013F110023ED011251AB1042D01DD54498A
:1005A00059610221397012B1082D00DD98611AB12C
:1005B0000C2D01DD0E21D9611AB103F120010020BB
:1005C00058B3102D32DD112542B1042139710021BB
:1005D0007971B9710121F9717868186100216FF39F
:1005E00000016FF341016FF382016FF3C501012335
:1005F00063F38811C5F3090565F352216FF3DE41FA
:100600006FF3DF7100233B4801F01EFEA5466FF03B
:100610001204B2E76FF00045BEE707F10806064492
:1006200016F8086C01F8016B0130C9E76FF01B0583
:10063000CAE72D4B1E6803233B716D468AB06B469B
:1006400013F1100240D015201AB1042801DD2A4907
:10065000596112B1082800DD9C610321397012B183
:100660000C2800DDDE611AB1102801DD0E211962AF
:100670001AB103F1240100264EB3142830DD1526EB
:1006800042B10521397100217971B9710121F971E6
:100690007868186100216FF300016FF341016FF377
:1006A00082016FF3C501012363F38811C6F30903C7
:1006B00063F352216FF3DE416FF3DF7100230D48C6
:1006C00001F0C2FDAD4658E76FF00040BCE707F10E
:1006D000080CB4441CF808CC01F801CB0136CBE778
:1006E0006FF01B06CCE700BF2CCC0100F6280020E1
:1006F00008D201004CD0010034D2010080B582B094
:1007000000AF012914BF002101212E4B19701B7865
:10071000002B45D02C4802233B7188B06B4613F167
:1007200010023FD04FF00D0C22B1BCF1040F01DDDF
:1007300026495961022139701AB1BCF1080F00DD58
:1007400098611AB103F11C01002070B3BCF10C0FC9
:1007500034DD4FF00D0C42B1032139710021797164
:10076000B9710121F9717868186100216FF30001F6
:100770006FF341016FF382016FF3C501032363F34C
:100780008811CCF3090C6CF352216FF3DE416FF347
:10079000DF7100230E4801F057FD0837BD4680BDCC
:1007A0000C48B8E76FF0004CBEE707F1080E86442E
:1007B0001EF808EC01F801EB0130C6E76FF01B0CE6
:1007C000C9E700BFF828002078D2010080D20100DC
:1007D00064D001006CD2010090B583B000AF0C462C
:1007E000224B186820B117F079FC204B00221A60C8
:1007F00088B06B4613F1100231D00C201AB10428D6
:1008000001DD1B49596112B1082800DD9C610B28EC
:1008100028DD4FF00C0C3AB10321397100217971B8
:10082000B971F9717868186100216FF300016FF3F5
:1008300041016FF382016FF3C501032363F3881154
:100840000CF47B7C6CF352216FF3DE416FF3DF71AC
:100850000023084801F0F8FC0C37BD4690BD6FF04E
:100860000040CBE76FF01B0CD5E700BFD81B002082
:1008700090D2010064D00100B0B588B000AF00296B
:100880003FD008466C4688B06B4613F1100232D058
:100890000C211AB1042901DD304D5D6112B1082926
:1008A00000DD98610B2929DD4FF00C0C3AB10321D2
:1008B000397100217971B971F97178681861002175
:1008C0006FF300016FF341016FF382016FF3C50114
:1008D000012363F388110CF47B7C6CF352216FF3DA
:1008E000DE416FF3DF7100231D4801F0ADFCA5462A
:1008F0002037BD46B0BD6FF00041CAE76FF01B0C5A
:10090000D4E70446174BFB6102233B7100237B7144
:10091000BB71FB717A68BA61194663F3000163F336
:10092000410163F3820163F3C501032262F388117D
:10093000082262F3522163F3DE4163F3DF7107F1B2
:100940001802074801F080FC074B1B68002BCFD131
:10095000204617F0A6FB044B1860C9E7ACD2010093
:1009600064D00100C8D20100D81B0020F0B595B0BA
:1009700002AF00283ED004466D4688B002AB13F1AA
:10098000100231D00C211AB1042901DD64485861EC
:1009900012B1082900DD9C610B2928DD0C243AB135
:1009A0000321397000217970B970F97038681861C5
:1009B00000216FF300016FF341016FF382016FF3C8
:1009C000C501012363F3881104F47B7363F352219F
:1009D0006FF3DE416FF3DF710023524801F034FC06
:1009E000AD464C37BD46F0BD6FF00041CBE76FF030
:1009F0001B04D4E74C4BFB6202233B7000247C7049
:100A0000BC70FC703B68BB62214664F3000164F378
:100A1000410164F3820164F3C501032666F3881182
:100A2000082363F3522164F3DE4164F3DF7123464C
:100A300007F128023B4801F007FC07F1040C3B4D8D
:100A40000FCDACE80F002B68CCF8003000942346A3
:100A500032463749381D08F07FFD044600283BD058
:100A60006D4688B002AB13F110022FD00C211AB1E1
:100A7000042901DD2F48586112B1082900DD9C616D
:100A80000B2926DD0C243AB103213970002179703D
:100A9000B970F9703868186100216FF300016FF3C5
:100AA00041016FF382016FF3C501012363F38811E4
:100AB00004F47B7363F352216FF3DE416FF3DF7154
:100AC0000023184801F0C0FBAD468AE76FF00041F3
:100AD000CDE76FF01B04D6E7174B7B6402233B7016
:100AE00000237B70BB70FB703A683A64194663F36D
:100AF000000163F3410163F3820163F3C501032243
:100B000062F38811082262F3522163F3DE4163F33A
:100B1000DF7107F14002034801F096FB61E700BF77
:100B2000D4D2010064D00100F4D2010010D1010040
:100B300078D301000CD3010034D30100B0B582B0EA
:100B400000AFFFF703FD10B10837BD46B0BD214827
:100B500007F0D2FD05460028F6D06C4688B06B46FB
:100B600013F1100230D00C211AB1042901DD1A480A
:100B7000586112B1082900DD9D610B2927DD4FF076
:100B80000C0C3AB10321397100217971B971F971F5
:100B90007868186100216FF300016FF341016FF372
:100BA00082016FF3C501012363F388110CF47B7C90
:100BB0006CF352216FF3DE416FF3DF7100230748BE
:100BC00001F042FBA546BFE76FF00041CCE76FF0B4
:100BD0001B0CD6E76D090000D4D2010064D00100DF
:100BE0002DE9F04F91B00646934601931A9F02916A
:100BF00059B196F80280CDF80080B8F1000F08D006
:100C000017F0010F10D1002304E014F0CBFC029088
:100C1000EFE7002396F803A0BAF1000F06D017F013
:100C2000020F1DD1002202E00123F3E7002202B9E6
:100C3000C3B13578AA00039206EB8505BBF1000F1E
:100C40001CD0002B40F08680009B002B00F08E8093
:100C500017F0040F40F08E800020814680467CE033
:100C60000122E4E7BBF1000F03D0019A029930465C
:100C7000D847029C204611B0BDE8F08F029C03BB10
:100C8000009BA3B317F0040928D01D444FF00009BE
:100C900024E00444013508F10108D0451BD22A782C
:100CA000002356F822201946584614F090FC002FD5
:100CB000EFD01C9B9945ECD227F8190009F10109E6
:100CC000E7E74FF00008C146CDF804A0DDF800A02A
:100CD0001A971B9FE1E7DDF804A01A9F07F00503B0
:100CE00000934FF00008CDF804B0B34623E0DDF8E0
:100CF0000090F3E700231E4613B117F0010F03D154
:100D000096B917F0020F0FD000231946019814F07E
:100D10005EFC1B9B3BB11C9B994504D21B9B23F89B
:100D2000190009F10109044416B1009B03B9013C03
:100D3000013508F10108D0459CD22B785BF82320BF
:100D40006B4B9A42D6D36B4B9A4201D30023D2E726
:100D50000123D0E70BA84FF0000918B1009A2946EB
:100D600016F0E6FC009B1D44002317E0002081469E
:100D70008046F2E7C14607A84FF00008EDE70021E2
:100D800039B317F0010F18D008F1010110A8804401
:100D900008F8142C5FFA81F80135013353452DD240
:100DA0002A7856F8221052488142E8D351488142AD
:100DB00001D30021E4E70121E2E717F0040FEBD0B3
:100DC00009F1010110A8814409F8242C5FFA81F986
:100DD000E2E717F0020F08D008F1010110A88044E3
:100DE00008F8142C5FFA81F8D6E709F1010110A880
:100DF000814409F8242C5FFA81F9CDE733788DF826
:100E00003C30737843448DF83D3017F0020F0AD020
:100E100000238DF83F3017F0010F06D117F0040FB3
:100E200032D1002302E04B46F3E700238DF83E3039
:100E3000306806900F983060019F3A46039930461B
:100E4000D847041EFFF616AF0698306001973A4661
:100E5000494607A8D847002843DB27180098039B7A
:100E6000184401465144DDF804904A46029B591A41
:100E70002846D847041EFFF6FDAE3D190027009610
:100E80005E46DDF86CB015E04B46CFE74FF0000A48
:100E90004A4601210DF11700B047002823DB054425
:100EA000534622464946304614F091FB00281CDB8D
:100EB00005440137B8450EDD10AB3B4413F8143C34
:100EC0008DF81730009A52F82340BBF1000FDDD0A7
:100ED0003BF817A0DCE7019A00210846B0472C46F2
:100EE000C8E60446C6E60446C4E60446C2E600BFB9
:100EF00054CB01006C00020008B5024B1B689847F8
:100F000008BD00BFBC010020014B1860704700BF46
:100F1000BC01002000B583B002460B4600210091C1
:100F2000024800F053FA03B05DF804FBF90E00002C
:100F300010B586B0044603900491002105910091FC
:100F400003A9064800F042FA059B049A934201DA8D
:100F50000022E254059806B010BD00BFCF56010034
:100F60002DE9F04383B0044608461546238B13F061
:100F7000080F05D103F0070600230093019369E0F1
:100F8000012909D043F02003238385F31188BFF39F
:100F90006F8F03B0BDE8F08343F010032383F4E7C1
:100FA000204614F0EFFB57E0D4F814904A46694607
:100FB000204614F000FC00275AE023691F68062130
:100FC000204614F0B8FB4FF0000951E023695F6838
:100FD0000421204614F0AFFB4FF0000948E02369DC
:100FE0009F680521204614F0A6FB4FF000093FE062
:100FF000002246E0002244E043F00803238385F307
:101000001188BFF36F8F002944D1009B2BB14B4651
:1010100042466946204614F045FC17B12549204652
:10102000B8474FF02003EFF3118583F31288BFF325
:101030006F8F238B23F008032383238B13F0100F70
:101040002ED023F0100323830120268B06F0070601
:1010500000289AD00228A3D0002896D00128A3D037
:101060000328AAD00428B1D00528B8D00027B94653
:10107000238B03F00708B045BAD0A268002AB9D084
:1010800001221146002AB7D1009A002AB4D1002FBC
:10109000B2D1D2E74A464146204614F054FBB4E7A9
:1010A00013F0200F04D023F0200323830220CCE789
:1010B0000020CAE7D358010070B582B0044600236F
:1010C0000360436083604B78252B02D04E1C0125C2
:1010D0001FE0881CE37045E1237843F0040323708C
:1010E000B5B1013614E0237843F008032370F7E725
:1010F000237843F010032370F2E7237843F02003B2
:101100002370EDE7237843F040032370E8E70025E0
:1011100045B33378203B102BF9D801A252F823F0C5
:10112000F11000000F1100000F110000FB10000073
:101130000F1100000F1100000F1100000F1100002F
:101140000F1100000F1100000F110000E710000048
:101150000F110000D91000000F1100000F11000046
:1011600005110000237803F04403442B5FD001965F
:10117000237843F08003237033782A2B5CD001A8B6
:1011800014F0FDFF019B9E420FD0237843F08003B3
:1011900023706060DBB2C3F34003002854DB0022FD
:1011A0001343227863F341022270019B01931B7861
:1011B0002E2B14BF00230123627863F34102627077
:1011C000002B43D0019B5A1C01925B782A2B3FD005
:1011D00001A814F0D4FFA0602378C3F340030028D3
:1011E0003EDB00221343227863F341022270019810
:1011F00003784C3B2E2B00F29D80DFE803F0909BA0
:101200009B9B9B9B9B9B9B9B9B9B9B9B9B9B9B9B2E
:101210009B9B9B9B9B9B9B9B9B9B339B579B459B20
:101220009B9B9B9B9B9B899B9B9B9B9B820023786F
:101230006FF3861323709AE7637843F001036370BA
:10124000334601330193B1E70122A9E70198CFE7C3
:10125000637843F004036370104601300190C7E7E0
:101260000122BFE7421C4378682B06D06378022135
:1012700061F3C603637010461EE06378012262F3D7
:10128000C6036370023017E0421C43786C2B06D013
:101290006378032161F3C603637010460CE0637842
:1012A000042262F3C6036370023005E0637805220E
:1012B00062F3C6036370013010F8013BE370A3F1E1
:1012C0004102372A7DD8DFE802F05E7C7C7C5E5EDE
:1012D0005E7C7C7C7C7C7C7C7C7C7C7C7C7C7C7C6C
:1012E0007C4F7C7C7C7C7C7C7C7C5E7C4F3A5E5E34
:1012F0005E7C3A7C7C7C7C654F717C7C717C4F7C15
:101300007C4F6378062262F3C60363700130D3E733
:101310006378072262F3C60363700130CCE7637819
:10132000082262F3C60363700130237843F002039E
:101330002370C1E763786FF3C6036370BCE7A278DC
:10134000012161F30202A270627802F07802402A61
:1013500010D0632B13D02378C3F34002154365F3F9
:101360004103237002B070BDA278022161F3020232
:10137000A270E9E7217841F001012170E9E7151E2B
:1013800018BF0125E7E7A378042262F30203A370E4
:101390000125E0E7A378032262F30203A3706378D8
:1013A00003F07803402BD6D10125D4E7A37803229C
:1013B00062F30203A370637813F0780FCBD001259A
:1013C000C9E7237843F001032370C4E72DE9F04F08
:1013D00091B006460D4691460393002499F800000B
:1013E000002800F0D582252808D009F101092946F6
:1013F000B0470028C0F2CD820134EFE70023049308
:1014000005930693079308930993494606A8FFF7A7
:1014100053FE02909DF8193013F0010F00F09780F1
:10142000039B1A1D03921F68002FC0F288809DF84D
:10143000193013F0040F00F09C80039B1A1D0392D7
:10144000D3F800A0BAF1000FC0F28A8000230793FE
:1014500008939DF81A3003F007039DF81910C1F3A3
:10146000C301012B00F08E80022B00F0D380042BEF
:1014700000F02481032B00F03B819DF8188018F0C8
:10148000030B40F03B819DF81B30253B532B00F2B2
:10149000E681DFE813F04001E401E401E401E40146
:1014A000E401E401E401E401E401E401E401E40114
:1014B000E401E401E401E401E401E401E401E40104
:1014C000E401E401E401E401E401E401E401E401F4
:1014D000E401E401E401E401E401E401E401E401E4
:1014E000E401E401E401E401E401E401E401E401D4
:1014F000E401E401E401E401E401E4018101E40127
:10150000E401E401E401E401E401E401E401E401B3
:10151000E4015E016701E401E401E401E401670123
:10152000E401E401E401E401BE018101A201E4015E
:10153000E4014D01E4018101E401E40181019DF830
:10154000183043F004038DF818307F426FE79DF99F
:101550001830002B02DB4FF0FF3768E7079F66E784
:101560009DF819306FF341038DF819304FF0FF3AB1
:101570006CE713F0020F02D0DDF820A066E74FF011
:10158000FF3A63E7CB1E042B04D8DFE803F00B1D02
:1015900029353500039B1A1D03921B68DA17049343
:1015A000059206E0039B1A1D03921B68DA17049349
:1015B0000592012928D002297FF45FAFBDF91030D0
:1015C000DA170493059258E7039B073323F00703C8
:1015D00003F108020392D3E90023CDE90423E8E7ED
:1015E000039B073323F0070303F108020392D3E9B7
:1015F0000023CDE90423DCE7039B1A1D03921B683B
:10160000DA1704930592D4E79DF91030DA170493A2
:10161000059232E7CB1E042B04D8DFE803F00B1F42
:1016200035414100039B1A1D03921B68049300235C
:1016300005931EE09DF81B30632B07D0039B1A1DFA
:1016400003921B6804930023059312E0039B1A1D69
:1016500003921B680493002305930AE0039B07335E
:1016600023F0070303F108020392D3E90023CDE935
:10167000042301291CD002297FF4FFAEBDF81030ED
:10168000049300230593F8E6039B073323F0070335
:1016900003F108020392D3E90023CDE90423E8E72C
:1016A000039B1A1D03921B68049300230593E0E734
:1016B0009DF81030049300230593DEE608290BD033
:1016C000039B073323F0070303F108020392D3E9D6
:1016D0000023CDE90423D0E6039B073323F007035F
:1016E00003F108020392D3E90023CDE90423C4E601
:1016F000039B1A1D03921B680493BEE6029F3B46A0
:101700004A462946304614F0B6FD0028C0F2418111
:101710000444B94662E629462520B0470028C0F2B5
:1017200038810134D8460DF13E0A4FF000099BE0A4
:10173000DDF81090BAF1000F07DB5146484615F06E
:10174000BDFF09EB000AD8468EE0484615F0ADFF14
:10175000F7E7049B8DF82830D8460DF1290A0DF1E2
:10176000280981E018F0080F05D118F0100804D0FE
:101770004FF0200801E04FF02B08049A059B002B46
:1017800002DB0492059308E0524263EB43030492A8
:1017900005934FF02D0800E0D8460DF13E0300936D
:1017A0000AAB06AADDE9040114F0FBFC8146BAF19C
:1017B000000FC0F288800DF13E03A3EB09039DF8F2
:1017C00018206FF386128DF818209A457ED9AAEB5F
:1017D000030307930DF13E0A46E0049828B9D84662
:1017E000DFF8B4A1AAF105093EE00DF13E03009334
:1017F0000AAB06AA002114F0D4FC81469DF81A30E9
:1018000043F010038DF81A3078238DF81B30D8463A
:10181000CDE7049A9DF81930C3F3C303072B06D80C
:10182000DFE803F0040B0D0F1115191B1460D846E7
:101830000DF13E0A4FF0000916E01470F7E714802E
:10184000F5E71460F3E7E31714605360EFE7E3177D
:1018500014605360EBE71460E9E71460E7E7D846EB
:101860000DF13E0A4FF00009B9F1000F00F08D8034
:10187000AAEB0903B8F1000F00D001339DF81A203C
:1018800012F0100F25D0023307990B4412F0400FCD
:1018900001D0089A1344002F31DDFF1A9DF818304B
:1018A00013F0040F2BD113F0400F17D0B8F1000F35
:1018B00017D029464046B04700286ADB0134D84695
:1018C0004FF0300B0FE00DF13E0ACDE70DF13E0A6F
:1018D000CAE712F0080FD7D00133D5E74FF0200B3D
:1018E00001E04FF0300B3B465F1E002B07DD294621
:1018F0005846B04700284CDB01343B46F4E7B8F1CA
:10190000000F05D029464046B047002841DB01348E
:101910009DF81A30C3F30012C3F3C003134305D07C
:1019200029463020B047002833DB01349DF81A30B7
:1019300013F0100F06D029469DF81B00B047002871
:1019400027DB0134079B03F1FF38002B07DD294615
:101950003020B04700281CDB01344346F3E75346F0
:101960004A462946304614F086FC002811DB044420
:10197000002F07DD29462020B047002809DB01346D
:10198000013FF5E7DDF8089028E5DDF8089025E54A
:10199000204611B0BDE8F08FE5D3010008B54FF047
:1019A0002002EFF3118382F31288BFF36F8F03F0ED
:1019B00059FB034813F0A3FE02F0EAF9FCE700BF6D
:1019C000E8D301004FF02003EFF3118C83F312886A
:1019D000BFF36F8F01211E4BC3F800151D4A022370
:1019E000C2F8D0361C48D0F8003223F0E04343F070
:1019F0004053C0F80032D0F8043223F0E04343F003
:101A00004053C0F80432C2F80417C2F80419C2F8EF
:101A1000001B00210AE01148803250F8223023F0E8
:101A2000E04343F0805340F822300131032908D8C5
:101A30000B4B5B5C03F01F025B09012BEBD00648EC
:101A4000EAE78CF31188BFF36F8F0020704700BF67
:101A500000100050004000500025845000288450A1
:101A600018D4010070B108B50246074B1B6807483F
:101A7000A0FB03139B0C03FB02F0054B43F0010397
:101A8000984708BD704700BF2404002083DE1B4335
:101A9000F0D10100062800D07047044B0122C3F8A2
:101AA0000025BFF34F8F20BFFDE700BF004000506F
:101AB00010B582B003460D4800900822019282685A
:101AC00054686CB10A4A0821A047002806DB009838
:101AD00083681B693BB101220199984702B010BD90
:101AE0006FF05700F1E76FF05700F7E7A4CC010063
:101AF0000968010010B5C4B20123A340054AC2F829
:101B00000835C0F307200EF063FD20460FF0F8FB08
:101B100010BD00BF0070015038B504460D46C0F33B
:101B200007200EF0FBFBC4F307439B00DBB23DB183
:101B3000E4B2064A44F00044D450C0F8804038BDB6
:101B40000021C0F88010014AD150F8E780A002506F
:101B500070B505460E46040EA40004F58074C0F36B
:101B6000072019F07EF846B1EDB245F00045C0F807
:101B70008050A4B2044B1D5170BD0022C0F88020DB
:101B8000A4B2014B1A51F7E780A0025070B582B0A1
:101B90000446C0F3072630460EF0C8FB0546002178
:101BA0002046FFF7D5FF01212046FFF7B5FF05F1DD
:101BB00032020194044B009352000023304619F086
:101BC00074F802B070BD00BFF5670100B0B582B017
:101BD00000AF381D0FF08CFB314B98423BD06FF0BB
:101BE00012046D4688B06B4613F1100252D00C21DE
:101BF0001AB1042901DD2B48586112B1082900DD12
:101C00009C610B2949DD4FF00C0C3AB1032139706E
:101C100000217970B970F9703868186100216FF38C
:101C200000016FF341016FF382016FF3C5010123DE
:101C300063F388110CF47B7363F352216FF3DE417D
:101C40006FF3DF710023184800F0FEFAAD4620461E
:101C50000837BD46B0BD0EF089FC041E16DB7C7152
:101C60000723BB710823FB717868FFF721FF041E6F
:101C700009DB3B79012101FA03F30C4AC2F8043570
:101C80007868FFF765FF002CE1D0AAE738790FF0FC
:101C900037FBF8E76FF00041AAE76FF01B0CB4E7E1
:101CA0000000AD0B1CD40100ACD00100007001504D
:101CB0000FF010B9F8B50646002400E001340E4BD1
:101CC0000E4A9B1AB4EB231F14DA0C4D05EB0415D6
:101CD0006B685B79002BF1D03146284614F0B8FDD3
:101CE0000028EBD02701054BDB591B6831462846FD
:101CF0009847E3E7F8BD00BFD4D00100C4D001008D
:101D000070B506460D46002403E02A463146984742
:101D10000134084B084A9B1AB4EB231F08DA23014D
:101D2000054A02EB04109B589B69002BEDD1EFE7AD
:101D300070BD00BFD4D00100C4D001002DE9F04136
:101D4000074605460AE007EA0807144B03EB0616A8
:101D5000736804221968204600F064FAD5B195FA38
:101D6000A5F6B6FA86F60D4C04EB06140123B34033
:101D70006FEA030825EA0305237B002BEED033012D
:101D8000064AD3581B69002BDDD02046984700280F
:101D9000E4D1D8E73846BDE8F08100BFC4D00100E7
:101DA0002DE9F04780460F46264BD3E8EF6F721CB3
:101DB000C3E8E12F0029F8D1002E3ED100240AE02B
:101DC000214B03EB0919D9F804300422196828467D
:101DD00000F028FA01341D4B1B4A9B1AB4EB231F59
:101DE0001BDAA146184D05EB04152B7B002BF1D017
:101DF0002301154A52F803A0DAF80C300BB128463B
:101E00009847DAF81030002BDAD028469847002897
:101E1000D6D00123A3401E43DCE7B8F1000F0DD05C
:101E200066B13046FFF78AFF0646002FF8D04FF420
:101E3000A470002112F078FCF2E700263046BDE8DD
:101E4000F08700BFE41B0020C4D00100D4D0010003
:101E500008B5064B186018B1054B1B68092B00DC50
:101E600008BD044811F094FEFAE700BF281C0020CA
:101E7000DC1B00203C06002008B5024811F088FE5B
:101E800008BD00BF3C06002030B589B000220F49D4
:101E90000F481AF06EFD0F4D00220023CDE90623F6
:101EA000002404940E2303930294019400940A4B9B
:101EB0004FF44072094928461AF080F8084928462C
:101EC00011F078FC204609B030BD00BF791E00003B
:101ED000B80F0020F00F00209521000008290020F5
:101EE00050D40100014B53F8200070475CD401002E
:101EF00038B108B5044A1060084600F0EFFB002036
:101F000008BD6FF015007047C001002008B5054BF3
:101F10001B781BB1034B01221A7008BD024811F057
:101F200037FEF7E7F92800203C060020094BD3E8EC
:101F3000EF2F0132C3E8E12F0029F8D100B9704733
:101F4000054BD3E8EF2F013AC3E8E12F0029F6D083
:101F5000F7E700BFE01B0020DC1B0020044B002043
:101F60000246D3E8EF0FC3E8E12F0029F9D170470B
:101F7000E01B002038B5FFF7F1FF0546002400E024
:101F800001340B4B0B4A9B1AB4EB231F0FDA0948A1
:101F900000EB041043685B79002BF1D02301054A64
:101FA000D3585B68002BEBD029469847E8E738BD4B
:101FB000D4D00100C4D00100034B18680028D4BF5E
:101FC00000200120704700BFE01B002008B5024937
:101FD000024814F02AFA08BD68D40100E81B00206A
:101FE00008B50023054A1370054A13604FF40041F9
:101FF0000448FFF77DFFFFF7E9FF08BDFA2800203E
:10200000E01B00205568010008B5014600220023AE
:10201000014814F031FA08BDE81B002008B5024859
:1020200014F027FB08BD00BFE81B002008B50146DF
:10203000014814F08FFB08BDE81B002008B50248DA
:1020400014F0C5FB08BD00BFE81B00200F4B18783B
:1020500000B9704710B5FFF7E1FF044668B10C4BBB
:10206000D3E8EF2F013AC3E8E12F0029F8D1204649
:10207000FFF720FE2046FFF7D9FFFFF79DFF10B9BD
:10208000FFF7DCFF10BDFFF775FFF9E7F928002027
:10209000DC1B0020134B1B7803B1704710B50021E7
:1020A0000120FFF77DFE002400E001340E4B0F4AB3
:1020B0009B1AB4EB231F0CDA0C4800EB04104368A6
:1020C0005B79002BF1D02301084AD3589B689847CD
:1020D000EBE7FFF7BBFF0028FBD1024B01221A7090
:1020E00010BD00BFFA280020D4D00100C4D00100E8
:1020F00010B582B0194BD3E8EF2F511CC3E8E01F95
:102100000028F8D1164B1B7863B9164B1B68BBB17E
:10211000C2B10A2A14D114481AF037FC134811F03E
:1021200037FD0DE04FF02003EFF3118483F31288A5
:10213000BFF36F8FFFF78AFF84F31188BFF36F8FB0
:1021400002B010BD00220023CDE900234FF400426D
:102150000023054812F046FDF2E700BFDC1B00201B
:10216000FA280020281C0020B80F00203C06002080
:1021700010B50446054B1B689847A06021460448EB
:1021800014F016FAFFF7B4FF10BD00BFC001002025
:10219000E81B00202DE9F04100210846FFF700FE72
:1021A000804640B140F26766002712F0E9FAFFF777
:1021B0004FFE002515E04FF0FF364FF0FF37F4E7F4
:1021C0004046FFF7BBFD804670B94FF0FF364FF039
:1021D000FF3709E02C4632463B46094811F000FD26
:1021E0002546B8F1000FEBD1FFF730FF0446002879
:1021F000F6D1002DEED000210846FFF781FDEAE779
:102200003C060020054B064A9B1AB1EBD30F02D2C5
:1022100052F8310070470020704700BFC4D0010061
:10222000CCCF010008B5074BC31A1B11013342681C
:10223000137143681960436801225A71FFF766FE03
:1022400008BD00BFC4D001002DE9F0478AB00546A3
:102250001E460F46C1F34924002C35D0904600227B
:102260000792089209920423029305AB019302237B
:10227000009307AB21464046FEF7B2FCC0F30909C4
:1022800069F35227C7F3CB404844173020F00700CA
:102290008008FFF7B9FE824600B300F110030793F0
:1022A000CDF820900022099263B1114A04230293D1
:1022B00005AB01930223009307AB21464046FEF78E
:1022C0008FFC0BE00022F1E7C1F3CB410C44173443
:1022D00024F00704A008FFF797FE824633463A46EB
:1022E0002946504614F0D7FA0AB0BDE8F08700BF7F
:1022F0006B6801000EB400B584B0014605AB53F81D
:10230000042B0393002000900348FFF75FF804B00C
:102310005DF804EB03B070477369010030B585B018
:1023200011F0440F05D01A4B1C6834B9002005B0D9
:1023300030BD1849FFF7DEFFF9E7174B1968B2FB0C
:10234000F1F1B1FBF4FC154AA2FB0C32D20A4FF4B6
:10235000616E0EFB12CE124BA3FB0E535B0904FB06
:102360001C114FF47A7C0CFB01F1B1FBF4F505FB79
:1023700014110CFB01F1B1FBF4F102910195C3EBD7
:102380000311AEEB810100910649FFF7B3FFCEE7E1
:102390002C1C00207CD40100301C0020C5B3A2916D
:1023A0008988888888D4010061B108B52AB1064AB5
:1023B00052F8232012B9054A00E0044A0449FFF705
:1023C00099FF08BD704700BFFCD40100A4D40100F0
:1023D00054E001002DE9F041054617461E46DDF8A0
:1023E000188099B900242EB1324612492846FFF7C9
:1023F00081FF0444B8F1000F17D087B10123079A79
:10240000934013F0100F13D10B4909E00B4B079ABF
:1024100053F822200A49FFF76DFF0446E3E7064917
:1024200042462846FFF766FF04442046BDE8F08197
:102430000449F5E7C0D40100ACD4010038D501004F
:10244000B8D40100B4D401002DE9F04F85B00546A1
:102450000C46164603939DF8408001F0020B01F0F4
:10246000010AC1F3C00914F0FEF9D8B102461249BD
:102470002846FFF73FFF0746BBF1000F14D1424645
:102480005146284614F035FACDF804800F9B00938E
:102490000E9B324649462846FFF79CFF384405B05C
:1024A000BDE8F08F0027E7E7039A21462846FFF7AB
:1024B00035FF0744E3E700BFC4D4010011F0100F5B
:1024C0000BD108B511F0200F03D00449FFF712FF1C
:1024D00008BD0349FFF70EFFFAE770478CDD0100E6
:1024E000480002002DE9F04105460F461646984681
:1024F0000699FFF7E3FF0024444505DA23492846FF
:10250000FFF7F8FE0134F7E7002409E01F492846E9
:10251000FFF7F0FE0BE01E492846FFF7EBFE013403
:102520000F2C0CDC002C02DD14F0070FEED0B442AF
:10253000F1D23A5D17492846FFF7DCFEEFE716496E
:102540002846FFF7D7FE002409E010492846FFF788
:10255000D1FE0BE011492846FFF7CCFE01340F2CC9
:1025600012DC002C02DD14F0070FEED0B44206D2CC
:102570003A5DA2F120035E2BECD92E22EAE7034953
:102580002846FFF7B7FEE9E7BDE8F081BCD40100BB
:10259000D0D40100C8D40100D4D40100D8D40100A3
:1025A0002DE9F04184B004469DF828500B9F0D9E04
:1025B0008DB94FF0000837B1BDB914483B462246EB
:1025C000134913F01BF896B9D5B9204614F0C4F995
:1025D00004B0BDE8F0810295019300920B46002201
:1025E0000E99FFF731FF8046E5E70A48E6E70E9BC4
:1025F0000093434632460C99204614F092F9E3E7E3
:102600002A460E99204614F080F9DEE7A3690100FE
:10261000E3680100736901002DE9F04387B00646C5
:102620000C469046D1F808900F88C7F382174B6884
:102630000878C0F3C20033B11149591A41F3CF01F0
:10264000002919DA0023214651F8105BC5F349250A
:102650006288C2F3CB02481905B90021CDF8108079
:102660000392029001910097002249463046FFF7FD
:1026700097FF07B0BDE8F083FFF7C4FD0346E2E72C
:10268000CCCF010070B582B00446056842F20F73EA
:102690008B4228BF0B460E4A0521684613F03DF8D1
:1026A000064663685B680B220A49284614F00CF959
:1026B00063685B6832466946284614F005F963682A
:1026C0005B681B220449284614F0FEF802B070BD76
:1026D000F0ED01002CD5010010D50100074B0122BF
:1026E0001A6004E04008054A13685B001360044B5D
:1026F0009842F7D8034B1860704700BF301C002089
:1027000040420F002C1C002070B506460D460024E8
:1027100006E0054B1868315D83685B6898470134B3
:10272000AC42F6D3284670BD4C1C0020014B19600A
:10273000002070473C1C0020014B024A1A60704781
:102740004C1C00205CCC010008B5034B01221A7020
:10275000024814F001F908BDFB28002088D50100CB
:1027600008B50248FFF78EFF08BD00BF88D50100FD
:1027700010B50C46044B1868FFF7B4FB03460F2254
:1027800021460248984710BD3C1C002088D5010016
:1027900000B58FB040B1836873B31B68002B53D072
:1027A00098470FB05DF804FB284B0D9302238DF87A
:1027B000043000238DF805308DF806308DF8073091
:1027C000019A0C92194663F3000163F3410163F32C
:1027D000820163F3C501012262F38811082262F3CA
:1027E000522163F3DE4163F3DF710CAA1848FFF74F
:1027F0002BFD6FF01500D4E7164B079302238DF8DD
:10280000043000238DF805308DF806308DF8073040
:10281000019A0692194663F3000163F3410163F3E1
:10282000820163F3C501012262F38811082262F379
:10283000522163F3DE4163F3DF7106AA0448FFF718
:1028400003FD6FF00400ACE70020AAE798D5010073
:1028500044D00100ACD5010010B58EB068B103467C
:1028600059B152B1806880B3846874B341F8043BB5
:1028700084681846A0470EB010BD284B0D93022364
:102880008DF8043000238DF805308DF806308DF872
:102890000730019A0C92194663F3000163F341017A
:1028A00063F3820163F3C501012262F388110822F8
:1028B00062F3522163F3DE4163F3DF710CAA18481F
:1028C000FFF7C2FC6FF01500D5E7164B0793022304
:1028D0008DF8043000238DF805308DF806308DF822
:1028E0000730019A0692194663F3000163F3410130
:1028F00063F3820163F3C501012262F388110822A8
:1029000062F3522163F3DE4163F3DF7106AA0448E8
:10291000FFF79AFC6FF00400ADE700BFCCD50100D3
:1029200044D00100ACD5010010B594B080B113467D
:1029300084460068002833D08268002A58D0546842
:10294000002C55D00A46DCF80410A04714B010BD86
:102950003B4B139302238DF8043000238DF8053090
:102960008DF806308DF80730019A1292194663F3FC
:10297000000163F3410163F3820163F3C5010122A6
:1029800062F38811082262F3522163F3DE4163F39C
:10299000DF7112AA2B48FFF757FC6FF01500D5E73F
:1029A000294B0D9302238DF8043000238DF8053058
:1029B0008DF806308DF80730019A0C92194663F3B2
:1029C000000163F3410163F3820163F3C501012256
:1029D00062F38811082262F3522163F3DE4163F34C
:1029E000DF710CAA1748FFF72FFC6FF00100ADE76D
:1029F000164B079302238DF8043000238DF8053021
:102A00008DF806308DF80730019A0692194663F367
:102A1000000163F3410163F3820163F3C501012205
:102A200062F38811082262F3522163F3DE4163F3FB
:102A3000DF7106AA0348FFF707FC6FF0040085E783
:102A4000F8D5010044D001000CD60100ACD501003E
:102A500008B5024914F045F808BD00BF10D40100C4
:102A600030B585B004460D460B490291D0F8981157
:102A7000019100934FF0FF3300F1E001284610F080
:102A8000CBF938B9012385F86430D4F894310BB10F
:102A90002846984705B030BD3B6B010010B582B0A9
:102AA00004460123019300230093064B826A416A86
:102AB00010F050F9A36E1B680BB1E06E984702B09E
:102AC00010BD00BF10D40100F0B583B044680569A3
:102AD000E369012B23D0276A05F52A76304619F0E1
:102AE00047FC606A002300933B464FF48062144920
:102AF00001EB8021304611F01BFA124905F52670D2
:102B000019F008FC04F11407606983685E684EB12F
:102B10002B460D4A7968B04738B103B0F0BD276A3B
:102B2000103FD9E76FF05700F6E7606983681B69CB
:102B30001BB1012279689847EFE76FF05700ECE787
:102B4000082C0020916D0100816D01002DE9F043FA
:102B500085B004464668056905F561790123D9E821
:102B6000EF2F002A03D1C9E8E13F0029F7D152D164
:102B700005F5D8783146404614F0AFF8074650B115
:102B80000023D9E8EF2FC9E8E13F0029F9D1384601
:102B900005B0BDE8F083214BC5F89032C5F88C62D2
:102BA0003168404600F0A2F907460028E8D12046E7
:102BB000FFF78AFF07460028E2D1194BC5F8943188
:102BC000184BC5F89831D5F85032B26AD5F8801351
:102BD00015480390D5F8F8010290D5F8F00101905E
:102BE000CDF80080284600F0CBF807460028C7D172
:102BF00005F1E00010F0C6F9C5F88803002807DBEE
:102C00000223D9E8EF2FC9E8E13F0029BFD0F8E758
:102C10006FF01507B4E76FF07707B8E7BF690100F9
:102C20009D2A0000AD6C0100B56B010010B58CB0A1
:102C30000DF1040C0D4C0FCCACE80F000FCCACE840
:102C40000F0094E807008CE8070001AC0CAB9C4235
:102C500002D300200CB010BD23680BB12C34F5E773
:102C600004220021606814F092FDF7E724D10100EE
:102C700010B582B00C46016901F56171D1E8AF1F52
:102C800002290FD18BB19CB1012101910093134610
:102C9000A26A616A204610F05DF8084B98420AD09B
:102CA00002B010BD6FF00F00FAE76FF04C00F7E7CD
:102CB0006FF00100F4E76FF00B00F1E72EF8FFFF73
:102CC0002DE9F04385B007460E469146D0F8A48022
:102CD000002400E00134012C28D8A8F5C471C4EB0D
:102CE000C40501EB0515C4EBC4031B0140331944B3
:102CF000304614F0EDFC0028ECD10E4B0293D8F8CE
:102D000010300193CDF800904FF0FF333246394632
:102D1000284610F081F848B9012185F86410D8F8E8
:102D20000C30002BD6D028469847D3E705B0BDE835
:102D3000F08300BFD76D0100C8B110B584B0144650
:102D40000346BAB1E030012902D0002004B010BD22
:102D50000A4A0292D3F8983101934FF0FF3300935F
:102D600004F140020146204610F056F8EEE76FF0FD
:102D7000150070476FF01500E8E700BFD76D010040
:102D80002DE9F04184B00B9D0D9C38B31F460646DB
:102D90003DB3BCB1C1B90292039206F5C4780C9A56
:102DA0002946404619F00EF802AB0193CDF8008099
:102DB0003B4622460A9906F1E00010F0FDF804B007
:102DC000BDE8F081084CE5E7002300933B4622462E
:102DD0000A9906F1E00010F0F1F9F0E76FF0150044
:102DE000EDE76FF01500EAE7C12C000010B584B0E4
:102DF0000446114A02AB92E8030083E80300184638
:102E00000FF0C6FE08B104B010BD04F134000FF09D
:102E10009FFE0028F7D101AA0849094818F08CF94B
:102E20000028F0D1019B9A681AB10C33C4F8A03085
:102E3000E9E70023FAE700BF50D1010060D60100A6
:102E40006CD60100F8B504460E46D0F89450ED005B
:102E50003435284619F072FE074618B12A4600217B
:102E600014F095FCC4F8D470C7B3D4F89450ED00B6
:102E70003435284619F062FE074618B12A4600216B
:102E800014F085FCC4F8D8705FB3D4F8A010C4F86F
:102E9000B810D4F88C30C4F8A830B4F89420A4F852
:102EA000B0200423C4F8AC30D4F8D400C4F8A40093
:102EB000C4F8D010D4F89010C4F8C010A4F8C820FA
:102EC000C4F8C430C4F8BC70A6610223A362064BE8
:102ED000236204F1A403E3620020F8BD6FF00B004D
:102EE000FBE76FF00B00F8E774D6010010B330B5C4
:102EF00085B00D460446114B43630123C363D0F8EC
:102F0000981001630023029301934FF0FF33009365
:102F1000D0F89C3000F13002403018F032F92046F1
:102F2000FFF764FF08B105B030BD29462046FFF722
:102F300089FFF8E76FF01500704700BF60D6010009
:102F400070B5284B1D7D05F01F0301229A406909C9
:102F5000254B03EB8103D043D3E8EF1F01EA0004C4
:102F6000C3E8E64F002EF7D10A4200D170BD1F48DA
:102F700005EB45029300C1181D4A72B14978C05C47
:102F800013F032FC4FF02003EFF3118683F3128825
:102F9000BFF36F8F174B1C6810E0002383F3118879
:102FA000BFF36F8FEEE70F4B1B7D03EB43039900DD
:102FB0000E4B585C90470CB1246824B11CB1A26838
:102FC000002AF0D1F7E786F31188BFF36F8F074827
:102FD00005EB4505AA008118002383504B608B60E8
:102FE000C4E700BFD8260020741C0020681C002005
:102FF000E9670100541C0020F8B504464B4B1D7DC9
:103000004FF02003EFF3118683F31288BFF36F8F25
:1030100005EB4502464B13F822304BB3454B03EB0F
:10302000820C434F4FEA820E07EB820393E80700BE
:103030008CE80700002307F80E3086F31188BFF3F1
:103040006F8F05EB45033B4A12F82330002B6AD003
:10305000B4F1FF3F1BD111F033F84FF02003EFF331
:10306000118683F31288BFF36F8F334B1C682EE0F9
:103070000146284600F06AF80028DED005EB45033B
:103080002C4A02EB830307C883E80700D5E705EB6A
:10309000450302EB83039868410CC003274BC0181B
:1030A000274A4FF0000341F10001FDF753F80121D9
:1030B000201A19F0F9FBCEE71C4B1B7D03EB4303F1
:1030C0001C4911F8230090470CB1246824B11CB1AD
:1030D0006268002AF0D1F7E786F31188BFF36F8F9B
:1030E00005F01F03012199406B09164A02EB830387
:1030F000D3E8EF2F0A43C3E8E02F0028F8D1124BA2
:103100005BB10C4A05EB450302EB830305EB450578
:10311000597812F82500FEF7BDFCFFF711FF11F0FA
:10312000F1F90120F8BD0020FCE700BFD8260020FF
:103130005C1C0020681C0020541C00203F420F0033
:1031400040420F00741C0020951A00002DE9F04148
:1031500082B00E4601A900F045F8441E24B207E0F3
:10316000B6F1FF3F33D04044B04230D9013C24B2E5
:10317000002C2BDB019B04EB440203EB82056978F6
:1031800013F8220013F047FE0028EFD16868410CC5
:10319000C003114FC019114A4FF0000341F1000163
:1031A000FCF7D8FF8046AB68590CDB03D8190B4AF3
:1031B0004FF0000341F10001FCF7CCFF084B1B6806
:1031C000B3F1FF3FCCD08342CAD8CFE700252846D1
:1031D00002B0BDE8F08100BF3F420F0040420F0047
:1031E000F001002008B9024B0B600020704700BFBF
:1031F0009CD6010070B48DB006460D460DF1040C4E
:103200002B4C0FCCACE80F000FCCACE80F0094E8CF
:1032100007008CE80700002E45D03046002D44D032
:1032200000230FE015F8234005EB83014A781204D0
:1032300042EA04628C7842EA0422C9780A4340F8E0
:1032400023200133032BEDD906E0191F50F821107C
:103250004A4040F8232001332B2B20D85A1E50F827
:10326000222013F0030FF0D14FEA3262110E114CFD
:10327000655CC2F30741615C090441EA0561C2F380
:103280000725655D41EA0521D2B2A25C114323F016
:1032900003020CAC224452F82C2C4A40D5E7012002
:1032A0000DB070BC70470020FAE70020F8E700BFBF
:1032B00058D101009CD60100002800F06683F0B5CB
:1032C00089B015460646002900F06183002A00F007
:1032D000608310230A4619460DEB030013F09DFD91
:1032E0002B689DF8102082EA13628DF81020C3F33A
:1032F00007429DF811104A408DF81120C3F30722B0
:103300009DF812104A408DF81220DBB29DF8132070
:1033100053408DF813306B689DF8142082EA1362D5
:103320008DF81420C3F307429DF815104A408DF81C
:103330001520C3F307229DF816104A408DF8162079
:10334000DBB29DF8172053408DF81730AB689DF81D
:10335000182082EA13628DF81820C3F307429DF803
:1033600019104A408DF81920C3F307229DF81A104E
:103370004A408DF81A20DBB29DF81B2053408DF88F
:103380001B30EB689DF81C2082EA13628DF81C202C
:10339000C3F307429DF81D104A408DF81D20C3F36A
:1033A00007229DF81E104A408DF81E20DBB29DF8C2
:1033B0001F2053408DF81F30002411E204A9C85C7F
:1033C000024A105CC854013302E000BF9CD60100E1
:1033D0000F2BF3D99DF810308DF800309DF8153083
:1033E0008DF801309DF81A308DF802309DF81F30AD
:1033F0008DF803309DF814308DF804309DF81930A5
:103400008DF805309DF81E308DF806309DF813308C
:103410008DF807309DF818308DF808309DF81D3074
:103420008DF809309DF812308DF80A309DF817306C
:103430008DF80B309DF81C308DF80C309DF8113054
:103440008DF80D309DF816308DF80E309DF81B303C
:103450008DF80F3010236A4619460DEB030013F068
:10346000DCFC9DF8100013F0E9FC07469DF8110004
:1034700013F0E4FC01469DF811009DF812209DF820
:10348000133041404F407A4053408DF800309DF852
:10349000107013F0D3FC4740FFB29DF8120013F0F8
:1034A000CDFC02469DF812009DF813304240574073
:1034B0005F408DF801709DF810709DF811305F40ED
:1034C00013F0BCFC4740FFB29DF8130013F0B6FCAC
:1034D0009DF81330584047408DF802709DF8100059
:1034E00013F0ACFC9DF810209DF811309DF812707F
:1034F000504043405F40FFB29DF8130013F09EFC24
:1035000047408DF803709DF8140013F097FC0746B0
:103510009DF8150013F092FC01469DF815009DF8EA
:1035200016209DF8173041404F407A4053408DF8A7
:1035300004309DF8147013F081FC4740FFB29DF8F1
:10354000160013F07BFC02469DF816009DF817301C
:10355000424057405F408DF805709DF814709DF80B
:1035600015305F4013F06AFC4740FFB29DF817002A
:1035700013F064FC9DF81730584047408DF80670F2
:103580009DF8140013F05AFC9DF814209DF8153096
:103590009DF81670504043405F40FFB29DF8170001
:1035A00013F04CFC47408DF807709DF8180013F09D
:1035B00045FC07469DF8190013F040FC01469DF8B4
:1035C00019009DF81A209DF81B3041404F407A4069
:1035D00053408DF808309DF8187013F02FFC4740C9
:1035E000FFB29DF81A0013F029FC02469DF81A005C
:1035F0009DF81B30424057405F408DF809709DF8A0
:1036000018709DF819305F4013F018FC4740FFB266
:103610009DF81B0013F012FC9DF81B3058404740EA
:103620008DF80A709DF8180013F008FC9DF818201A
:103630009DF819309DF81A70504043405F40FFB22A
:103640009DF81B0013F0FAFB47408DF80B709DF8B6
:103650001C0013F0F3FB07469DF81D0013F0EEFB72
:1036600001469DF81D009DF81E209DF81F30414029
:103670004F407A4053408DF80C309DF81C7013F089
:10368000DDFB4740FFB29DF81E0013F0D7FB02465A
:103690009DF81E009DF81F30424057405F408DF856
:1036A0000D709DF81C709DF81D305F4013F0C6FB37
:1036B0004740FFB29DF81F0013F0C0FB9DF81F307C
:1036C000584047408DF80E709DF81C0013F0B6FB73
:1036D0009DF81C209DF81D309DF81E705040434001
:1036E0005F40FFB29DF81F0013F0A8FB47408DF824
:1036F0000F7010236A4619460DEB030013F08DFB83
:103700000134230105EB0412EB589DF8101081EAF7
:1037100013618DF81010C3F307419DF8110041406B
:103720008DF81110C3F307219DF8120041408DF868
:103730001210DBB29DF813104B408DF81330536814
:103740009DF8141081EA13618DF81410C3F307413A
:103750009DF8150041408DF81510C3F307219DF821
:10376000160041408DF81610DBB29DF817104B4043
:103770008DF8173093689DF8181081EA13618DF861
:103780001810C3F307419DF8190041408DF8191036
:10379000C3F307219DF81A0041408DF81A10DBB2DF
:1037A0009DF81B104B408DF81B30D3689DF81C20F2
:1037B00082EA13628DF81C20C3F307429DF81D10A6
:1037C0004A408DF81D20C3F307229DF81E104A4081
:1037D0008DF81E20DBB29DF81F2053408DF81F305E
:1037E000082C01D80023F3E5002305E004AAD15CEE
:1037F0006948415CD15401330F2BF7D99DF8103043
:103800008DF800309DF815308DF801309DF81A3094
:103810008DF802309DF81F308DF803309DF814307C
:103820008DF804309DF819308DF805309DF81E3064
:103830008DF806309DF813308DF807309DF818305C
:103840008DF808309DF81D308DF809309DF8123044
:103850008DF80A309DF817308DF80B309DF81C302C
:103860008DF80C309DF811308DF80D309DF8163024
:103870008DF80E309DF81B308DF80F3010236A46FE
:1038800019460DEB030013F0C8FA631C1A0105EB8F
:103890000313AA589DF8101081EA12618DF81010D8
:1038A000C2F307419DF8110041408DF81110C2F399
:1038B00007219DF8120041408DF81210D2B29DF8F8
:1038C00013104A408DF813205A689DF8141081EAAD
:1038D00012618DF81410C2F307419DF815004140A4
:1038E0008DF81510C2F307219DF8160041408DF8A0
:1038F0001610D2B29DF817104A408DF817209A681A
:103900009DF8181081EA12618DF81810C2F3074172
:103910009DF8190041408DF81910C2F307219DF858
:103920001A0041408DF81A10D2B29DF81B104A407F
:103930008DF81B20DB689DF81C2082EA13628DF84D
:103940001C20C3F307429DF81D104A408DF81D202E
:10395000C3F307229DF81E104A408DF81E20DBB2EB
:103960009DF81F2053408DF81F3010230DEB0302EC
:103970001946304613F051FA102200210DEB0200D7
:1039800013F058FA012009B0F0BD00207047002064
:10399000F9E70020F7E700BF9CD601002DE9F04FC2
:1039A00093B08A46D0F800E045688468D0F80CC02F
:1039B000026947698669C1694FF0000846E0D1464F
:1039C00019F801BB9AF801301B0443EA0B6399F81C
:1039D00001A043EA0A2309F1030A99F8029043EA95
:1039E00009030DF1480909EB880949F8403C4FEA01
:1039F000F22989EAB21989EA7269494402EA070997
:103A000026EA020B89EA0B094944DFF84C9159F880
:103A1000289049440B444FEA7E3181EABE0181EA95
:103A2000BE5185EA040909EA0E0905EA040B89EA90
:103A30000B09894408F1010831463E4617460CEB54
:103A40000302A4462C46754603EB090EB8F10F0F8E
:103A5000B5D9B8F13F0F63D808F1010909F00F0398
:103A60000DF1480A0AEB830353F8403C4FEAB34B8D
:103A70008BEAF31B8BEAD30B08F10E0303F00F0361
:103A80000AEB830353F840AC4FEAFA4383EA7A43E4
:103A900083EA9A2308F00F0A5B44019308F1090BAB
:103AA0000BF00F0B12AB03EB8B0B5BF840BC019BD5
:103AB0009B4412AB03EB8A0A5AF8403C5B444AF839
:103AC000403C4FEAF22A8AEAB21A8AEA726A514400
:103AD00002EA070A26EA020B8AEA0B0A5144DFF8D7
:103AE00078A05AF8288041440B444FEA7E3A8AEA8B
:103AF000BE0A8AEABE5A85EA040101EA0E0105EA15
:103B0000040881EA08018A44C84631463E46174601
:103B10000CEB0302A4462C46754603EB0A0E98E70D
:103B200003687344036043682B4443608368234401
:103B30008360C3686344C3600369134403614369DA
:103B40003B444361836933448361C3690B44C3616C
:103B500013B0BDE8F08F00BF9CD70100E0B110B5F5
:103B600004467022002113F065F90C4B23600C4BC6
:103B700063600C4BA3600C4BE3600C4B23610C4B5C
:103B800063610C4BA36103F17453A3F52303A3F604
:103B90009243E361012010BD0020704767E6096A87
:103BA00085AE67BB72F36E3C3AF54FA57F520E515E
:103BB0008C68059BABD9831F08B5024811F0BCFB8C
:103BC00008BD00BF9CD8010008B308B54368042BAA
:103BD00007D0082B12D0FBB100680FF061FF002066
:103BE00014E003680022D3E8EF1F012903D1C3E8E2
:103BF000E02F0028F7D10DD1104607E003681B78AD
:103C000003F580730020054A42F8230008BD6FF4D5
:103C1000E04070470248F9E70248F7E70000035028
:103C2000E98FFFFFEA8FFFFF70B308B54368042BED
:103C300004D0082B0FD0C3B915480BE0036801224C
:103C4000D3E8EF1F002903D1C3E8E02F0028F7D104
:103C500016D1002008BD03681B7803F580730D4A58
:103C600052F8233073B90020F4E700684FF0FF32B8
:103C70004FF0FF330FF08AFE0028EBD00648E9E74B
:103C80000548E7E70448E5E76FF4E040704700BF08
:103C9000EA8FFFFF00000350E98FFFFF10B50446D5
:103CA00088B16368042B0DD0082B0BD053B113F0EF
:103CB000020F0DD02146094818F031F90023236086
:103CC0000023636010BD064B5B6806489847E8E731
:103CD00014220021206813F05AFDF1E7781C00201F
:103CE000E4040020A4D8010010B5044678B163684C
:103CF000042B0BD0082B09D00BB9236863B12068C3
:103D000018F09AF9636843F00103636010BD0F4B2C
:103D10005B680F489847EAE74FF0FF324FF0FF33F8
:103D200021460C480FF0F2FC08B923681BB9074B79
:103D30005B680948984714220021206813F027FD8A
:103D4000636843F002036360D9E700BFE404002026
:103D5000A4D80100781C0020CCD8010008B540236D
:103D600014220449044818F0CCF80449044811F01E
:103D700045FB08BD941C0020781C00200CD90100D4
:103D8000FCD80100014910220A60704710ED00E0E4
:103D900072B6404080F31188BFF36F8FBFF34F8F2F
:103DA00030BF62B6BFF36F8F704700BF72B6494035
:103DB00081F3118820BF80F3118862B6704700BF7D
:103DC000F0B583B000AF0446D0F800C04568806805
:103DD0006E468AB06B4613F1100200F0F080142199
:103DE0002AB1042903DDDFF808E2C3F814E01AB1B0
:103DF000082901DDC3F818C012B10C2900DDDD610E
:103E000012B1102900DD1862132940F3DB8014255C
:103E10003AB10521397100217971B971F971786868
:103E2000186100216FF300016FF341016FF382010C
:103E30006FF3C501012363F3881105F47D7565F304
:103E400052216FF3DE416FF3DF7100236948FEF703
:103E5000FBF9B546D4F80CC0266960696D468AB096
:103E60006B4613F1100200F0B08014212AB104292E
:103E700003DDDFF884E1C3F814E01AB1082901DD9D
:103E8000C3F818C012B10C2900DDDE6112B110298F
:103E900000DD1862132940F39B804FF0140C3AB1F7
:103EA0000521397100217971B971F971786818614A
:103EB00000216FF300016FF341016FF382016FF393
:103EC000C501012363F388110CF47D7C6CF352214E
:103ED0006FF3DE416FF3DF7100234648FEF7B4F95C
:103EE000AD46E0696D4688B06B4613F1100272D0A2
:103EF0000C211AB1042901DD404E5E6112B108297E
:103F000000DD98610B2969DD4FF00C0C3AB10321FB
:103F1000397100217971B971F971786818610021DE
:103F20006FF300016FF341016FF382016FF3C5017D
:103F3000012363F388110CF47B7C6CF352216FF343
:103F4000DE416FF3DF7100232A48FEF77DF9AD46AD
:103F5000A06988B06B4613F1100242D00C211AB14F
:103F6000042901DD264C5C6112B1082900DD98614D
:103F70000B2939DD0C243AB1032139710021797103
:103F8000B971F9717868186100216FF300016FF35E
:103F900041016FF382016FF3C501012363F38811BF
:103FA00004F47B7464F352216FF3DE416FF3DF712D
:103FB00000231048FEF748F90C37BD46F0BD6FF0FE
:103FC00000410DE76FF01B0522E76FF000414DE760
:103FD0006FF01B0C63E76FF000418AE76FF01B0C7A
:103FE00094E76FF00041BAE76FF01B04C3E700BF2E
:103FF00020D9010084D0010050D9010080D90100EE
:1040000090D9010040B2002807DB00F01F024009F0
:1040100001239340014A42F82030704700E100E05C
:1040200040B200280CDB00F01F024009012393403E
:104030002030044A42F82030BFF34F8FBFF36F8F18
:10404000704700BF00E100E04209054B53F8222011
:1040500000F01F00012303FA00F01040704700BF7A
:1040600000E100E0013140B2002808DB4901C9B29B
:1040700000F1604000F5614080F80013704700F0E7
:104080000F004901C9B2014B1954704714ED00E00B
:1040900030BFFFF7FDBF00BF08B50B4B0B4A22F046
:1040A0007F029A60BFF34F8FBFF36F8FD3F88820E2
:1040B00022F47002C3F888200FF060FA10F0B2FB0F
:1040C00000F082FF0FF0B6FA00ED00E00000000003
:1040D0000A4A9368C3F8AC0009490968C3F8B010EC
:1040E00008494B6843F080534B60002383F31188E9
:1040F000BFF36F8F9368D3F8B0007047D8260020C5
:10410000C8FE010000ED00E014498A684FF030005D
:104110001044EFF3098C80E8F01F202080F3128810
:10412000BFF36F8F0E4F4FF00066CA698A603E6022
:10413000D2F8AC000023C2F8AC3080F3118802F151
:10414000300090E8F01F8CF3098802F1000004B5FC
:1041500013F004FABDE8044070470000D8260020A0
:1041600004ED00E01EF0040F0CBFEFF30880EFF346
:104170000980816911F8021C0229FFD001B513F0F2
:10418000DBF901BD10B4A2F120040E4942F8081C6D
:1041900021F0010142F8081C42F8203C019B42F842
:1041A0001C3C029B42F8183C039B42F8143C4FF025
:1041B000807342F8043C04650023C0F8AC3010BCA6
:1041C000704700BF415A0100094B9860D0F89C30FD
:1041D00083F30B88104681F30988002163B681F3CD
:1041E0001188BFF36F8F0022002311F029FC00BF5C
:1041F000D826002001B572B60B4A906900281EBF70
:104200000021916117F0FCFE62B6EFF30580A0F18A
:1042100010004FEAC0000549014409C99847BDE8AC
:104220000140034908470000D826002004CD0100C2
:1042300035420000044B9968D869884203D003498D
:104240004FF080520A607047D826002004ED00E04D
:104250002DE9F041A6B000AF05460E461446AD4B21
:10426000FB6102233B7100237B71BB71FB717A6898
:10427000BA61194663F3000163F3410163F38201FC
:1042800063F3C501012262F38811082262F352210F
:1042900063F3DE4163F3DF7107F118029E48FDF717
:1042A000D3FF9E4B9B6A13F0100F35D19B4B9B6A3B
:1042B00013F0080F53D1994B9B6A13F0020F71D181
:1042C000964B9B6A13F0010F40F0DC80934B9B6A86
:1042D00013F0200F40F0F980904B9B6A13F0100F01
:1042E00001D18E4B9B6A8D4B9B6A13F0200F04D03B
:1042F0008A4A536A23F400535362884A936A43F00C
:10430000FF0393620121284613F02DF9207000204D
:104310009837BD46BDE8F081814B7B6302233B713A
:1043200000237B71BB71FB717A683A63194663F3B2
:10433000000163F3410163F3820163F3C5010122CC
:1043400062F38811082262F3522163F3DE4163F3C2
:10435000DF7107F130027048FDF776FFA6E7714B79
:10436000FB6402233B7100237B71BB71FB717A6894
:10437000BA64194663F3000163F3410163F38201F8
:1043800063F3C501012262F38811082262F352210E
:1043900063F3DE4163F3DF7107F148025E48FDF726
:1043A00053FF88E7604B7B6602233B7100237B71E0
:1043B000BB71FB717A683A66194663F3000163F3D7
:1043C000410163F3820163F3C501012262F38811A5
:1043D000082262F3522163F3DE4163F3DF7107F1D8
:1043E00060024D48FDF730FF4C4B586B9B6A13F051
:1043F000800F3FF465AFE84688B06B4613F11002BA
:104400003AD00C212AB1042903DDDFF820C1C3F81A
:1044100014C012B1082900DD98610B292FDD4FF07F
:104420000C0C3AB10321397100217971B971F9711C
:104430007868186100216FF300016FF341016FF399
:1044400082016FF3C501012363F388110CF47B73C0
:1044500063F352216FF3DE416FF3DF7100232E48C7
:10446000FDF7F2FEC546002E3FF42AAF2B4A936AB1
:1044700023F08003936223E76FF00041C2E76FF0FF
:104480001B0CCEE72A4BFB6702233B7100237B7199
:10449000BB71FB717A68BA67194663F3000163F375
:1044A000410163F3820163F3C501012262F38811C4
:1044B000082262F3522163F3DE4163F3DF7107F1F7
:1044C00078021548FDF7C0FE00E71A4BC7F8943094
:1044D00002233B7100237B71BB71FB717A68C7F8C3
:1044E0009020194663F3000163F3410163F38201F5
:1044F00063F3C501012262F38811082262F352219D
:1045000063F3DE4163F3DF7107F190020248FDF7C8
:104510009BFEE1E6C0D9010084D0010000ED00E07F
:10452000D8D901000CDA010020DA010038DA0100E4
:1045300050DA010070DA01002DE9F041ACB000AFB3
:1045400005460E461446BA4BFB6102233B7100231D
:104550007B71BB71FB717A68BA61194663F3000124
:1045600063F3410163F3820163F3C501012262F346
:104570008811082262F3522163F3DE4163F3DF7195
:1045800007F11802AB48FDF75FFEAB4B9B6A13F4D3
:10459000805F2AD1A84B9B6A13F4006F48D1A64BC9
:1045A0009B6A13F4007F66D1A34B9B6A13F4806F60
:1045B00040F0D180A04B9B6A13F4807F40F0EE80E6
:1045C0009D4B9B6A13F4005F40F00D819A4A936AF9
:1045D00043F47F4393620121284612F0C4FF207008
:1045E0000020B037BD46BDE8F081944B7B630223C9
:1045F0003B7100237B71BB71FB717A683A6319468A
:1046000063F3000163F3410163F3820163F3C501C6
:10461000012262F38811082262F3522163F3DE4122
:1046200063F3DF7107F130028248FDF70DFEB1E759
:10463000834BFB6402233B7100237B71BB71FB71D5
:104640007A68BA64194663F3000163F3410163F3C6
:10465000820163F3C501012262F38811082262F32B
:10466000522163F3DE4163F3DF7107F148027148C1
:10467000FDF7EAFD93E7734B7B6602233B71002352
:104680007B71BB71FB717A683A66194663F300016E
:1046900063F3410163F3820163F3C501012262F315
:1046A0008811082262F3522163F3DE4163F3DF7164
:1046B00007F160025F48FDF7C7FD5F4B986B9B6A8F
:1046C00013F4004F3FF470AFE84688B06B4613F127
:1046D00010023AD00C212AB1042903DDDFF868C1A9
:1046E000C3F814C012B1082900DD98610B292FDD31
:1046F0004FF00C0C3AB10321397100217971B97175
:10470000F9717868186100216FF300016FF34101BE
:104710006FF382016FF3C501012363F388110CF479
:104720007B7363F352216FF3DE416FF3DF7100237C
:104730004048FDF789FDC546002E3FF435AF3E4A9F
:10474000936A23F4004393622EE76FF00041C2E7BF
:104750006FF01B0CCEE73D4BFB6702233B71002340
:104760007B71BB71FB717A68BA67194663F300010C
:1047700063F3410163F3820163F3C501012262F334
:104780008811082262F3522163F3DE4163F3DF7183
:1047900007F178022748FDF757FD0BE72C4BC7F8C8
:1047A000AC3002233B7100237B71BB71FB717A68D3
:1047B000C7F8A820194663F3000163F3410163F3CE
:1047C000820163F3C501012262F38811082262F3BA
:1047D000522163F3DE4163F3DF7107F1A80215484C
:1047E000FDF732FDF2E61B4BC7F8943002233B7114
:1047F00000237B71BB71FB717A68C7F89020194662
:1048000063F3000163F3410163F3820163F3C501C4
:10481000012262F38811082262F3522163F3DE4120
:1048200063F3DF7107F190020248FDF70DFDCDE65D
:10483000A0DA010084D0010000ED00E0B8DA010048
:104840000CDA0100CCDA0100E8DA010000DB01003B
:104850001CDB010070DA010010B5B2B0AF4B07935A
:1048600002238DF8043000238DF805308DF80630D2
:104870008DF80730019A0692194663F3000163F33D
:10488000410163F3820163F3C501012262F38811E0
:10489000082262F3522163F3DE4163F3DF7106AA5B
:1048A0009F48FDF7D1FC9F4B9B6A13F0007F2BD1F3
:1048B0009C4B9B6A13F0807F4CD19A4B9C6A14F4FA
:1048C00080146DD1974B9B6A13F4002F40F08E80BB
:1048D000944B9B6A13F4802F40F0AE80914B9B6AFF
:1048E00013F4003F40F0CE808E4B9B6A13F4803F60
:1048F00040F0EE808B4A936A6FEA03436FEA1343FA
:104900009362204632B010BD874B0D9302238DF881
:10491000043000238DF805308DF806308DF807300F
:10492000019A0C92194663F3000163F3410163F3AA
:10493000820163F3C501012262F38811082262F348
:10494000522163F3DE4163F3DF710CAA7448FDF773
:104950007BFCADE7754B139302238DF804300023E5
:104960008DF805308DF806308DF80730019A1292D7
:10497000194663F3000163F3410163F3820163F3BA
:10498000C501012262F38811082262F3522163F308
:10499000DE4163F3DF7112AA6148FDF755FC8CE735
:1049A000634B199302248DF8044000238DF80530E1
:1049B0008DF806308DF80730019A1892194663F386
:1049C000000163F3410163F3820163F3C501012236
:1049D00062F38811082262F3522163F3DE4163F32C
:1049E000DF7118AA4E48FDF72FFC6BE7514B1F9360
:1049F00002238DF8043000238DF805308DF8063041
:104A00008DF80730019A1E92194663F3000163F393
:104A1000410163F3820163F3C501012262F388114E
:104A2000082262F3522163F3DE4163F3DF711EAAB1
:104A30003B48FDF709FC4BE73F4B259302238DF8DC
:104A4000043000238DF805308DF806308DF80730DE
:104A5000019A2492194663F3000163F3410163F361
:104A6000820163F3C501012262F38811082262F317
:104A7000522163F3DE4163F3DF7124AA2848FDF776
:104A8000E3FB2BE72D4B2B9302238DF804300023FF
:104A90008DF805308DF806308DF80730019A2A928E
:104AA000194663F3000163F3410163F3820163F389
:104AB000C501012262F38811082262F3522163F3D7
:104AC000DE4163F3DF712AAA1548FDF7BDFB0BE752
:104AD0001B4B319302238DF8043000238DF80530F1
:104AE0008DF806308DF80730019A3092194663F33D
:104AF000000163F3410163F3820163F3C501012205
:104B000062F38811082262F3522163F3DE4163F3FA
:104B1000DF7130AA0248FDF797FBEBE634DB0100BA
:104B200084D0010000ED00E04CDB010060DB0100FF
:104B30007CDB0100A8DB0100C8DB0100F0DB010029
:104B40000CDC0100F0B59BB000AF06460D46844B6F
:104B5000FB6102233B7100247C71BC71FC717B689A
:104B6000BB61214664F3000164F3410164F38201F7
:104B700064F3C501012363F38811082363F3522111
:104B800064F3DE4164F3DF71234607F118027548D0
:104B9000FDF75AFB2C70744BDC6A14F002040CD144
:104BA000714BDB6A002B2CDB6F4BDC6A14F080440A
:104BB0004AD120466C37BD46F0BD6C4B7B66022364
:104BC0003B7100247C71BC71FC717B683B662146A3
:104BD00064F3000164F3410164F3820164F3C501ED
:104BE000012363F38811082363F3522164F3DE4148
:104BF00064F3DF71234607F160025A48FDF724FB96
:104C0000D7E75B4BFB6402233B7100237B71BB71D5
:104C1000FB717A68BA64194663F3000163F34101DA
:104C200063F3820163F3C501012262F38811082254
:104C300062F3522163F3DE4163F3DF7107F148024F
:104C40004848FDF701FBB4E74A4B7B6302233B7105
:104C500000237B71BB71FB717A683A63194663F379
:104C6000000163F3410163F3820163F3C501012293
:104C700062F38811082262F3522163F3DE4163F389
:104C8000DF7107F130023748FDF7DEFAB36933F818
:104C9000022C4DF602739A4215D0334B9B6A13F0E7
:104CA000FF0F4ED1304B9B6A13F47F4F50D12E4BE8
:104CB0009C6A240C2404002C3FF47BAF3046FFF7A1
:104CC000CBFD044675E730686D4688B06B4613F13E
:104CD000100230D00C211AB1042901DD264C5C6190
:104CE00012B1082900DD98610B2927DD0C243AB1A7
:104CF0000321397100217971B971F97178681861EE
:104D000000216FF300016FF341016FF382016FF334
:104D1000C501012363F3881104F47B7464F3522109
:104D20006FF3DE416FF3DF7100230E48FDF78CFA5D
:104D3000AD4634683DE76FF00041CCE76FF01B04EF
:104D4000D5E72A4601213046FFF782FA044630E7CC
:104D50002A4601213046FFF7EFFB044629E700BF52
:104D600038DC010084D0010000ED00E050DC0100DF
:104D700074DC010084DC0100A4DC010000B589B012
:104D800000230B70134A079202228DF804208DF83D
:104D900005308DF806308DF80730019A06921946D5
:104DA00063F3000163F3410163F3820163F3C5011F
:104DB000012262F38811082262F3522163F3DE417B
:104DC00063F3DF7106AA0448FDF73EFA09B05DF807
:104DD00004FB00BFC0DC010084D0010090B583B0AB
:104DE00000AF0F294BDC2F4C103902233B718AB0E6
:104DF0006B4613F1100244D04FF0110C22B1BCF1FC
:104E0000040F01DD28485861022038701AB1BCF146
:104E1000080F00DD9C611AB1BCF10C0F00DDD961F7
:104E20001AB103F12001002070B3BCF1100F35DD81
:104E30004FF0110C42B10421397100217971B9711F
:104E40000121F9717868186100216FF300016FF397
:104E500041016FF382016FF3C501012363F38811F0
:104E6000CCF3090C6CF352216FF3DE416FF3DF7169
:104E700000230E48FDF7E8F90C37BD4690BD0C4CF9
:104E8000B2E76FF0004CB9E707F1080404EB000E3D
:104E90001EF808EC01F801EB0130C5E76FF01B0CC0
:104EA000C8E700BF00DD010018DD010084D001006B
:104EB000E4DC010070B590B0354B5D68C5F30805C2
:104EC000002383F31188BFF36F8F02F07F43B3F1A8
:104ED0007F4F3FD102F00C03082B10D012F0080FC7
:104EE00035D00C4600260DF127022946204612F047
:104EF0003CFB05469DF827307BB310B070BD254BB9
:104F00000F9302238DF8003000248DF801408DF8B6
:104F100002408DF80340009B0E93214664F300018C
:104F200064F3410164F3820164F3C501012363F377
:104F30008811082363F3522164F3DE4164F3DF71C7
:104F400023460EAA1448FDF77FF92646CBE7044610
:104F50000126C8E700263446C5E72022214601A8DD
:104F600012F0E6FB4EB1089BC3F308025AB96FEA90
:104F700053236FEA4323089305E0089B23F4FF7350
:104F800023F00103089301A9284612F0C9FAB4E7F7
:104F900000ED00E02CDD010084D00100044B5A69D3
:104FA00042F010025A615A6942F480625A617047B5
:104FB00000ED00E0EFF30880EFF3098101B57246E0
:104FC000FFF778FF01BD00BF002207E003F1604357
:104FD00003F56143202183F800130132442A09DCE0
:104FE00053B2002BF2DA02F00F01034B0B442021E5
:104FF0001976F2E7704700BFFCEC00E0002015498D
:105000000870002080F31488BFF36F8F002080F3B6
:105010000A8880F30B88FCF74BFE00200E490860DD
:10502000BFF34F8F0D4880F3088800F041F820202F
:1050300080F311880A484FF40061401880F3098812
:10504000EFF314800221084380F31488BFF36F8FBD
:10505000FFF722F80029002094ED00E0B84200207C
:10506000F8430020BFF34F8F0549CA6802F4E0629D
:10507000044B1343CB60BFF34F8F00BFFDE700BF6E
:1050800000ED00E00400FA05084BD3F89000C0F3EF
:105090000720002306E0054AC2F898300021C2F834
:1050A000A01001338342F6DB704700BF00ED00E043
:1050B00010B572B6002484F31388FFF7E5FF23468A
:1050C00008E003F120010E4A4FF0FF3042F82100C2
:1050D0000133DBB20F2BF4D9002308E003F16001A8
:1050E000074A4FF0FF3042F821000133DBB20F2BAB
:1050F000F4D962B6BFF34F8FBFF36F8F10BD00BFFF
:1051000000E100E008B50A4B9B68834202D00FF033
:105110003DFB08BDEFF30583002BF8D0054B5A6823
:1051200042F080525A605A6A22F400425A62EEE714
:10513000D826002000ED00E010B584B00A4C2346CC
:105140000A4A01210A4812F084FA002301930293CB
:105150000393084B0193E41A0294012101A812F071
:105160007CFA04B010BD00BF000007200000002042
:105170005CDD0100B8070020024B034AC3F8C020E1
:10518000704700BF00ED00E0AAFF4400034BC3F8E6
:105190009800C3F89C10C3F8A020704700ED00E011
:1051A000B0B582B000AF0446072805D812F00CFA5B
:1051B00020460837BD46B0BD6D4688B06B4613F13A
:1051C000100231D00C211AB1042901DD19485861AF
:1051D00012B1082900DD9C610B2928DD0C243AB1AD
:1051E0000321397100217971B971F97178681861F9
:1051F00000216FF300016FF341016FF382016FF340
:10520000C501012363F3881104F47B7464F3522114
:105210006FF3DE416FF3DF7100230748FDF714F8E9
:10522000AD466FF01500C4E76FF00041CBE76FF0BB
:105230001B04D4E768DD010074D001002DE9F04FB4
:1052400089B000AF8246B9607B6014464FF0000819
:10525000B8E06D4688B06B4613F1100232D00C21D5
:105260001AB1042901DD9D4858611AB1082901DDF0
:10527000C3F818800B2928DD0C243AB103213974B6
:1052800000217974B974F9743869186100216FF3D9
:1052900000016FF341016FF382016FF3C501012338
:1052A00063F3881104F47B7464F352216FF3DE41DD
:1052B0006FF3DF7100238A48FCF7C6FFAD466FF03D
:1052C00015043FE06FF00041CAE76FF01B04D4E71C
:1052D0006FF015069CE06D4688B06B4613F1100226
:1052E00035D00C211AB1042901DD7E48586112B174
:1052F000082900DD9E610B292CDD0C243AB1032125
:10530000397400217974B974F9743869186100210D
:105310006FF300016FF341016FF382016FF3C50179
:10532000012363F3881104F47B7363F352216FF359
:10533000DE416FF3DF7100236948FCF785FFAD465E
:105340006FF0150420462437BD46BDE8F08F6FF09E
:105350000041C7E76FF01B04D0E7814575D12946AE
:10536000F0B212F057F92BE05F4AC2F898C0D2F8B9
:105370009C3003F01F0321F01F011943C2F89C1059
:105380002946E0B212F046F9044610F1160FD9D0C2
:10539000013415E0013B5449C1F898C0D1F8A02070
:1053A00002F01F0223F01F031343C1F8A030294667
:1053B000E0B212F02FF9044610F1160FC2D00134FA
:1053C00008F10108BB689845BCDA08EB48054FEACC
:1053D000850B0AEB8505D5F80490B9F1000FEFD0E5
:1053E0007B682BB1284612F003F900283FF431AF57
:1053F0005AF80B30FB60184612F0DCF80646FB68E2
:1054000009EB0300013812F0D5F886427FF460AF53
:1054100016F1160F3FF45FAFB4427FF75CAFB446AE
:10542000314BC3F89860D3F89C2022F01F02C3F8D8
:105430009860D3F8A03043F01F095AF80B30696820
:105440001944481EF860934287D093428CD0FA6882
:1054500091459FD0013B24496646C1F898C0D1F8D8
:10546000A02002F01F0223F01F031343C1F8A03055
:105470002946E0B212F0CEF8044610F1160F3FF4C0
:1054800061AF0130184BC3F89860D3F89C103A7E96
:1054900061F304023A76D3F8A030C3F34203D2B2E8
:1054A00063F347123A765AF80B306A6813443B614B
:1054B00023F01F03FA68A9EB02094B44013B23F0D8
:1054C0001F03FB6107F11001C0B2FFF769FE04463C
:1054D00010F1160F3FF436AF013471E790DD010093
:1054E00074D00100B4DD010000ED00E010B5034C04
:1054F00001232278FFF7A2FE207010BDFC280020B7
:105500002DE9F84307468846002403E06FF01505AF
:1055100017E00134A04543DD04EB44039A0007EB98
:1055200083035E68002EF4D057F80290484612F0CC
:1055300041F8054606EB0900013812F03BF88542B8
:10554000E4D104EB84031A4A42F8235015F1160FF4
:1055500027D0184B1B78AB4226DD04EB8402144B9A
:1055600003EB8202144BC3F89850C3F89850D3F859
:105570009C50107B65F304001073D3F8A000C0F3B7
:105580004200157B60F347151573D3F89C0020F09B
:105590001F005060D3F8A03023F01F031361B8E759
:1055A00000252846BDE8F8836FF01505F9E700BF30
:1055B00094210020FC28002000ED00E0044B05228F
:1055C000C3F89420BFF34F8FBFF36F8F704700BFB6
:1055D00000ED00E0BFF35F8F024B0022C3F8942080
:1055E000704700BF00ED00E038B50E4B1D68082D78
:1055F00015D8FFF7EFFFFFF7BFFD002407E0094BC9
:10560000596801EB0411204611F0DEFF0134A54278
:10561000F5D8054B1D70FFF7D1FF002038BD4FF0C6
:10562000FF30FBE7E8DD0100FC280020014B18609B
:10563000704700BF14020020044B1022C3F840241E
:105640004FF050230022C3F814267047003000505A
:10565000402928BF402100238B421CD230B410F8CF
:1056600003C04FEA1C1C5A000D4D15F80CC00D4C20
:1056700004F813C010F803C00CF00F0C013215F839
:105680000C50A55401338B42E9D30648002200F8A0
:10569000132030BC70470348002200F813207047E5
:1056A00070DE0100C8210020F0B58BB004460378FD
:1056B000032B2CD8DFE803F0021C2126174907A88A
:1056C00011F0CFFF63792279E178A0786678144DE4
:1056D00007AF059704960390029101920093A37976
:1056E000104A1E21284610F018F828460BB0F0BDCD
:1056F0000D4907A811F0B5FFE4E70C4907A811F020
:10570000B0FFDFE70A4907A811F0ABFFDAE7094A63
:105710000A2107A810F001F8D4E700BF24DE010039
:10572000A82100204CDE01002CDE010034DE010047
:1057300040DE01006CEF010070B584B002AE0024C1
:1057400002940394084B0293084D284616F010FE6D
:1057500000960A234FF4A362054928460EF0E8FBA1
:10576000204604B070BD00BF84DE01003814002064
:105770000830002008B50146014816F01BFE08BDA0
:105780003814002010B586468C460378012B18D0BB
:10579000022B32D003B110BD1B4C0FCCCCF8000053
:1057A000CCF80410CCF80820CCF80C3023788CF816
:1057B0001030BEF802308CF80D301B0A8CF80E3019
:1057C000E9E7114C0FCCCCF80000CCF80410CCF871
:1057D0000820CCF80C3023788CF81030DEF8043038
:1057E0008CF80D30C3F307228CF80E201A0C8CF8BD
:1057F0000F201B0E8CF81030CDE7112201466046B9
:1058000011F096FFC7E700BF90DE010038B50546EE
:1058100001280CD0084814F015FC04462CB10121D5
:1058200004F1080014F036FC2575204638BD034805
:1058300014F008FC0446F1E7840600200807002065
:1058400010B502460A4BD3F8300158B114F0B3FC3E
:1058500004460121017500238381083014F01AFCED
:10586000204610BD0B460120FFF7D0FF0446F7E7A6
:105870000000002010B50F280DD913280DD11448B1
:1058800014F0E0FB044698B10121083014F002FC4A
:10589000012323750CE00E2805D259B90120FFF72A
:1058A000B5FF044604E010461946FFF7C9FF044659
:1058B000204610BD074814F0C5FB04460028F7D069
:1058C0000121083014F0E6FB01232375F0E700BF47
:1058D0008C070020DC060020002303B17047054A36
:1058E00032F8132022B940F47042024921F8132003
:1058F0000133F2E7C422002040F4704000230BB1D2
:1059000000207047064A32F81320824201D001334A
:10591000F5E7034A002122F813100120704700BF69
:10592000C422002082685178084B83F8681051889F
:10593000A3F86A10117983F86910B2F80710A3F878
:105940006C10B2F80520A3F86E207047000000200C
:105950008368197ADA7942EA012198795A7942EA18
:10596000002242EA01421879D97841EA0021987868
:105970005B7843EA002343EA01430349C1F8D83086
:10598000C1F8DC20704700BF0000002010B58EB0C9
:1059900086460DF1040C0C4C0FCCACE80F000FCC7C
:1059A000ACE80F000FCCACE80F002368CCF8003057
:1059B000BEF10C0F02D905480EB010BD0EAB03EBC3
:1059C0008E0E5EF8340CF7E784D10100F0DF0100A1
:1059D000032801D902487047024B53F82000704752
:1059E000F0DF010084E70100022807D1032901D973
:1059F00003487047034B53F8210070470048704735
:105A0000F0DF010054E70100032801D90248704784
:105A1000024B53F820007047F0DF0100BCE70100A3
:105A200083681B7853B9064BD3E8AF2F02F0090205
:105A3000D3E8EF1FC3E8E02F0028F9D1704700BF7B
:105A4000CC00002008B5816808220131014811F01E
:105A50006FFE08BD7000002008B58168402201314A
:105A6000014811F065FE08BD7800002008B5816886
:105A700008220131014811F05BFE08BDD000002072
:105A800008B58268B2F8013099B20648A0F8FC3037
:105A900001B908BDD1780A4600F5807016F0BAFB4E
:105AA000F7E700BF0000002008B58268084BB3F894
:105AB000FC3003B108BDB2F801300548A0F8FC3055
:105AC00091880A4600F5807016F0A4FBF2E700BF4B
:105AD0000000002090B583B000AF8368187888B0CC
